{
  "contractName": "Citizen",
  "abi": [
    {
      "inputs": [
        {
          "internalType": "uint256",
          "name": "id",
          "type": "uint256"
        }
      ],
      "name": "getCitizen",
      "outputs": [
        {
          "components": [
            {
              "internalType": "uint256",
              "name": "id",
              "type": "uint256"
            },
            {
              "internalType": "string",
              "name": "passport_number",
              "type": "string"
            },
            {
              "internalType": "string",
              "name": "name",
              "type": "string"
            },
            {
              "internalType": "string",
              "name": "dob",
              "type": "string"
            },
            {
              "internalType": "string",
              "name": "nationality",
              "type": "string"
            },
            {
              "internalType": "string",
              "name": "last_known_location",
              "type": "string"
            },
            {
              "internalType": "string",
              "name": "departure",
              "type": "string"
            },
            {
              "internalType": "string[]",
              "name": "connecting_countries",
              "type": "string[]"
            },
            {
              "internalType": "string",
              "name": "arrival",
              "type": "string"
            },
            {
              "components": [
                {
                  "internalType": "string",
                  "name": "country",
                  "type": "string"
                },
                {
                  "internalType": "uint256",
                  "name": "date",
                  "type": "uint256"
                },
                {
                  "internalType": "string",
                  "name": "reason",
                  "type": "string"
                }
              ],
              "internalType": "struct Citizen.TravelHistory[]",
              "name": "travel_history",
              "type": "tuple[]"
            }
          ],
          "internalType": "struct Citizen.citizen",
          "name": "",
          "type": "tuple"
        }
      ],
      "stateMutability": "view",
      "type": "function"
    },
    {
      "inputs": [
        {
          "internalType": "uint256",
          "name": "id",
          "type": "uint256"
        },
        {
          "internalType": "string",
          "name": "pn",
          "type": "string"
        },
        {
          "internalType": "string",
          "name": "nam",
          "type": "string"
        },
        {
          "internalType": "string",
          "name": "dateOfBirth",
          "type": "string"
        },
        {
          "internalType": "string",
          "name": "nation",
          "type": "string"
        }
      ],
      "name": "setCitizen",
      "outputs": [],
      "stateMutability": "nonpayable",
      "type": "function"
    },
    {
      "inputs": [
        {
          "internalType": "uint256",
          "name": "id",
          "type": "uint256"
        }
      ],
      "name": "getLastKnownLocation",
      "outputs": [
        {
          "internalType": "string",
          "name": "",
          "type": "string"
        }
      ],
      "stateMutability": "view",
      "type": "function"
    },
    {
      "inputs": [
        {
          "internalType": "uint256",
          "name": "id",
          "type": "uint256"
        }
      ],
      "name": "getCitizenDeparture",
      "outputs": [
        {
          "internalType": "string",
          "name": "",
          "type": "string"
        }
      ],
      "stateMutability": "view",
      "type": "function"
    },
    {
      "inputs": [
        {
          "internalType": "uint256",
          "name": "id",
          "type": "uint256"
        }
      ],
      "name": "getCitizenConnectingCountries",
      "outputs": [
        {
          "internalType": "string[]",
          "name": "",
          "type": "string[]"
        }
      ],
      "stateMutability": "view",
      "type": "function"
    },
    {
      "inputs": [
        {
          "internalType": "uint256",
          "name": "id",
          "type": "uint256"
        }
      ],
      "name": "getCitizenArrival",
      "outputs": [
        {
          "internalType": "string",
          "name": "",
          "type": "string"
        }
      ],
      "stateMutability": "view",
      "type": "function"
    }
  ],
  "bytecode": "0x608060405234801561001057600080fd5b5061161a806100206000396000f3fe608060405234801561001057600080fd5b50600436106100625760003560e01c806307e97bf8146100675780635d5a098314610097578063676d9458146100b35780638914a8a0146100e3578063a4e27f1a14610113578063bb57f9df14610143575b600080fd5b610081600480360381019061007c9190610d94565b610173565b60405161008e9190610e5a565b60405180910390f35b6100b160048036038101906100ac9190610fb1565b610189565b005b6100cd60048036038101906100c89190610d94565b61045b565b6040516100da9190610e5a565b60405180910390f35b6100fd60048036038101906100f89190610d94565b610471565b60405161010a91906113e2565b60405180910390f35b61012d60048036038101906101289190610d94565b610b63565b60405161013a919061148a565b60405180910390f35b61015d60048036038101906101589190610d94565b610b79565b60405161016a9190610e5a565b60405180910390f35b606061017e82610471565b60a001519050919050565b8460008087815260200190815260200160002060000154036101e0576040517f08c379a00000000000000000000000000000000000000000000000000000000081526004016101d7906114f8565b60405180910390fd5b8460008087815260200190815260200160002060000181905550836000808781526020019081526020016000206001019080519060200190610223929190610b90565b5082600080878152602001908152602001600020600201908051906020019061024d929190610b90565b50816000808781526020019081526020016000206003019080519060200190610277929190610b90565b508060008087815260200190815260200160002060040190805190602001906102a1929190610b90565b508060008087815260200190815260200160002060050190805190602001906102cb929190610b90565b50604051806020016040528060008152506000808781526020019081526020016000206006019080519060200190610304929190610b90565b50604051806020016040528060405180602001604052806000815250815250600080878152602001908152602001600020600701906001610346929190610c16565b5060405180602001604052806000815250600080878152602001908152602001600020600801908051906020019061037f929190610b90565b5060008086815260200190815260200160002060090160405180606001604052808381526020014281526020016040518060400160405280600b81526020017f4e6174696f6e616c6974790000000000000000000000000000000000000000008152508152509080600181540180825580915050600190039060005260206000209060030201600090919091909150600082015181600001908051906020019061042a929190610b90565b50602082015181600101556040820151816002019080519060200190610451929190610b90565b5050505050505050565b606061046682610471565b60c001519050919050565b610479610c76565b8160008084815260200190815260200160002060000154146104d0576040517f08c379a00000000000000000000000000000000000000000000000000000000081526004016104c790611564565b60405180910390fd5b6000808381526020019081526020016000206040518061014001604052908160008201548152602001600182018054610508906115b3565b80601f0160208091040260200160405190810160405280929190818152602001828054610534906115b3565b80156105815780601f1061055657610100808354040283529160200191610581565b820191906000526020600020905b81548152906001019060200180831161056457829003601f168201915b5050505050815260200160028201805461059a906115b3565b80601f01602080910402602001604051908101604052809291908181526020018280546105c6906115b3565b80156106135780601f106105e857610100808354040283529160200191610613565b820191906000526020600020905b8154815290600101906020018083116105f657829003601f168201915b5050505050815260200160038201805461062c906115b3565b80601f0160208091040260200160405190810160405280929190818152602001828054610658906115b3565b80156106a55780601f1061067a576101008083540402835291602001916106a5565b820191906000526020600020905b81548152906001019060200180831161068857829003601f168201915b505050505081526020016004820180546106be906115b3565b80601f01602080910402602001604051908101604052809291908181526020018280546106ea906115b3565b80156107375780601f1061070c57610100808354040283529160200191610737565b820191906000526020600020905b81548152906001019060200180831161071a57829003601f168201915b50505050508152602001600582018054610750906115b3565b80601f016020809104026020016040519081016040528092919081815260200182805461077c906115b3565b80156107c95780601f1061079e576101008083540402835291602001916107c9565b820191906000526020600020905b8154815290600101906020018083116107ac57829003601f168201915b505050505081526020016006820180546107e2906115b3565b80601f016020809104026020016040519081016040528092919081815260200182805461080e906115b3565b801561085b5780601f106108305761010080835404028352916020019161085b565b820191906000526020600020905b81548152906001019060200180831161083e57829003601f168201915b5050505050815260200160078201805480602002602001604051908101604052809291908181526020016000905b828210156109355783829060005260206000200180546108a8906115b3565b80601f01602080910402602001604051908101604052809291908181526020018280546108d4906115b3565b80156109215780601f106108f657610100808354040283529160200191610921565b820191906000526020600020905b81548152906001019060200180831161090457829003601f168201915b505050505081526020019060010190610889565b50505050815260200160088201805461094d906115b3565b80601f0160208091040260200160405190810160405280929190818152602001828054610979906115b3565b80156109c65780601f1061099b576101008083540402835291602001916109c6565b820191906000526020600020905b8154815290600101906020018083116109a957829003601f168201915b5050505050815260200160098201805480602002602001604051908101604052809291908181526020016000905b82821015610b545783829060005260206000209060030201604051806060016040529081600082018054610a27906115b3565b80601f0160208091040260200160405190810160405280929190818152602001828054610a53906115b3565b8015610aa05780601f10610a7557610100808354040283529160200191610aa0565b820191906000526020600020905b815481529060010190602001808311610a8357829003601f168201915b5050505050815260200160018201548152602001600282018054610ac3906115b3565b80601f0160208091040260200160405190810160405280929190818152602001828054610aef906115b3565b8015610b3c5780601f10610b1157610100808354040283529160200191610b3c565b820191906000526020600020905b815481529060010190602001808311610b1f57829003601f168201915b505050505081525050815260200190600101906109f4565b50505050815250509050919050565b6060610b6e82610471565b60e001519050919050565b6060610b8482610471565b61010001519050919050565b828054610b9c906115b3565b90600052602060002090601f016020900481019282610bbe5760008555610c05565b82601f10610bd757805160ff1916838001178555610c05565b82800160010185558215610c05579182015b82811115610c04578251825591602001919060010190610be9565b5b509050610c129190610cc9565b5090565b828054828255906000526020600020908101928215610c65579160200282015b82811115610c64578251829080519060200190610c54929190610b90565b5091602001919060010190610c36565b5b509050610c729190610ce6565b5090565b604051806101400160405280600081526020016060815260200160608152602001606081526020016060815260200160608152602001606081526020016060815260200160608152602001606081525090565b5b80821115610ce2576000816000905550600101610cca565b5090565b5b80821115610d065760008181610cfd9190610d0a565b50600101610ce7565b5090565b508054610d16906115b3565b6000825580601f10610d285750610d47565b601f016020900490600052602060002090810190610d469190610cc9565b5b50565b6000604051905090565b600080fd5b600080fd5b6000819050919050565b610d7181610d5e565b8114610d7c57600080fd5b50565b600081359050610d8e81610d68565b92915050565b600060208284031215610daa57610da9610d54565b5b6000610db884828501610d7f565b91505092915050565b600081519050919050565b600082825260208201905092915050565b60005b83811015610dfb578082015181840152602081019050610de0565b83811115610e0a576000848401525b50505050565b6000601f19601f8301169050919050565b6000610e2c82610dc1565b610e368185610dcc565b9350610e46818560208601610ddd565b610e4f81610e10565b840191505092915050565b60006020820190508181036000830152610e748184610e21565b905092915050565b600080fd5b600080fd5b7f4e487b7100000000000000000000000000000000000000000000000000000000600052604160045260246000fd5b610ebe82610e10565b810181811067ffffffffffffffff82111715610edd57610edc610e86565b5b80604052505050565b6000610ef0610d4a565b9050610efc8282610eb5565b919050565b600067ffffffffffffffff821115610f1c57610f1b610e86565b5b610f2582610e10565b9050602081019050919050565b82818337600083830152505050565b6000610f54610f4f84610f01565b610ee6565b905082815260208101848484011115610f7057610f6f610e81565b5b610f7b848285610f32565b509392505050565b600082601f830112610f9857610f97610e7c565b5b8135610fa8848260208601610f41565b91505092915050565b600080600080600060a08688031215610fcd57610fcc610d54565b5b6000610fdb88828901610d7f565b955050602086013567ffffffffffffffff811115610ffc57610ffb610d59565b5b61100888828901610f83565b945050604086013567ffffffffffffffff81111561102957611028610d59565b5b61103588828901610f83565b935050606086013567ffffffffffffffff81111561105657611055610d59565b5b61106288828901610f83565b925050608086013567ffffffffffffffff81111561108357611082610d59565b5b61108f88828901610f83565b9150509295509295909350565b6110a581610d5e565b82525050565b600082825260208201905092915050565b60006110c782610dc1565b6110d181856110ab565b93506110e1818560208601610ddd565b6110ea81610e10565b840191505092915050565b600081519050919050565b600082825260208201905092915050565b6000819050602082019050919050565b600061112d83836110bc565b905092915050565b6000602082019050919050565b600061114d826110f5565b6111578185611100565b93508360208202850161116985611111565b8060005b858110156111a557848403895281516111868582611121565b945061119183611135565b925060208a0199505060018101905061116d565b50829750879550505050505092915050565b600081519050919050565b600082825260208201905092915050565b6000819050602082019050919050565b6000606083016000830151848203600086015261120082826110bc565b9150506020830151611215602086018261109c565b506040830151848203604086015261122d82826110bc565b9150508091505092915050565b600061124683836111e3565b905092915050565b6000602082019050919050565b6000611266826111b7565b61127081856111c2565b935083602082028501611282856111d3565b8060005b858110156112be578484038952815161129f858261123a565b94506112aa8361124e565b925060208a01995050600181019050611286565b50829750879550505050505092915050565b6000610140830160008301516112e9600086018261109c565b506020830151848203602086015261130182826110bc565b9150506040830151848203604086015261131b82826110bc565b9150506060830151848203606086015261133582826110bc565b9150506080830151848203608086015261134f82826110bc565b91505060a083015184820360a086015261136982826110bc565b91505060c083015184820360c086015261138382826110bc565b91505060e083015184820360e086015261139d8282611142565b9150506101008301518482036101008601526113b982826110bc565b9150506101208301518482036101208601526113d5828261125b565b9150508091505092915050565b600060208201905081810360008301526113fc81846112d0565b905092915050565b600082825260208201905092915050565b6000611420826110f5565b61142a8185611404565b93508360208202850161143c85611111565b8060005b8581101561147857848403895281516114598582611121565b945061146483611135565b925060208a01995050600181019050611440565b50829750879550505050505092915050565b600060208201905081810360008301526114a48184611415565b905092915050565b7f436974697a656e20616c72656164792065786973747300000000000000000000600082015250565b60006114e2601683610dcc565b91506114ed826114ac565b602082019050919050565b60006020820190508181036000830152611511816114d5565b9050919050565b7f436974697a656e20646f6573206e6f7420657869737400000000000000000000600082015250565b600061154e601683610dcc565b915061155982611518565b602082019050919050565b6000602082019050818103600083015261157d81611541565b9050919050565b7f4e487b7100000000000000000000000000000000000000000000000000000000600052602260045260246000fd5b600060028204905060018216806115cb57607f821691505b6020821081036115de576115dd611584565b5b5091905056fea2646970667358221220a3e2176ef9b22854bd86c9455011544e699d0ba767c6a650e2662ff390fc7dbd64736f6c634300080d0033",
  "immutableReferences": {},
  "source": "// SPDX-License-Identifier: MIT\r\n\r\npragma solidity >=0.7.0 <0.9.0;\r\n\r\ncontract Citizen {\r\n    function uint2str(uint256 _i)\r\n        internal\r\n        pure\r\n        returns (string memory _uintAsString)\r\n    {\r\n        if (_i == 0) {\r\n            return \"0\";\r\n        }\r\n        uint256 j = _i;\r\n        uint256 len;\r\n        while (j != 0) {\r\n            len++;\r\n            j /= 10;\r\n        }\r\n        bytes memory bstr = new bytes(len);\r\n        uint256 k = len;\r\n        while (_i != 0) {\r\n            k = k - 1;\r\n            uint8 temp = (48 + uint8(_i - (_i / 10) * 10));\r\n            bytes1 b1 = bytes1(temp);\r\n            bstr[k] = b1;\r\n            _i /= 10;\r\n        }\r\n        return string(bstr);\r\n    }\r\n\r\n    struct TravelHistory {\r\n        string country;\r\n        uint256 date;\r\n        string reason;\r\n    }\r\n\r\n    struct citizen {\r\n        uint256 id;\r\n        string passport_number;\r\n        string name;\r\n        string dob;\r\n        string nationality;\r\n        string last_known_location;\r\n        string departure;\r\n        string[] connecting_countries;\r\n        string arrival;\r\n        TravelHistory[] travel_history;\r\n    }\r\n\r\n    mapping(uint256 => citizen) citizenHashMap;\r\n\r\n    function getCitizen(uint256 id)\r\n        public\r\n        view\r\n        returns (Citizen.citizen memory)\r\n    {\r\n        require(citizenHashMap[id].id == id, \"Citizen does not exist\");\r\n        return citizenHashMap[id];\r\n    }\r\n\r\n    function setCitizen(\r\n        uint256 id,\r\n        string memory pn,\r\n        string memory nam,\r\n        string memory dateOfBirth,\r\n        string memory nation\r\n    ) public {\r\n        require(citizenHashMap[id].id != id, \"Citizen already exists\");\r\n        citizenHashMap[id].id = id;\r\n        citizenHashMap[id].passport_number = pn;\r\n        citizenHashMap[id].name = nam;\r\n        citizenHashMap[id].dob = dateOfBirth;\r\n        citizenHashMap[id].nationality = nation;\r\n        citizenHashMap[id].last_known_location = nation;\r\n        citizenHashMap[id].departure = \"\";\r\n        citizenHashMap[id].connecting_countries = [\"\"];\r\n        citizenHashMap[id].arrival = \"\";\r\n        citizenHashMap[id].travel_history.push(\r\n            TravelHistory(nation, block.timestamp, \"Nationality\")\r\n        );\r\n    }\r\n\r\n    function getLastKnownLocation(uint256 id)\r\n        public\r\n        view\r\n        returns (string memory)\r\n    {\r\n        return getCitizen(id).last_known_location;\r\n    }\r\n\r\n    function setLastKnownLocation(uint256 id, string memory lkl) internal {\r\n        require(citizenHashMap[id].id == id, \"Citizen does not exist\");\r\n        citizenHashMap[id].last_known_location = lkl;\r\n        citizenHashMap[id].travel_history.push(\r\n            TravelHistory(lkl, block.timestamp, \"Reason not given\")\r\n        );\r\n    }\r\n\r\n    function getCitizenDeparture(uint256 id)\r\n        public\r\n        view\r\n        returns (string memory)\r\n    {\r\n        return getCitizen(id).departure;\r\n    }\r\n\r\n    function setCitizenDeparture(uint256 id, string memory dep) internal {\r\n        require(citizenHashMap[id].id == id, \"Citizen does not exist\");\r\n        citizenHashMap[id].departure = dep;\r\n    }\r\n\r\n    function getCitizenConnectingCountries(uint256 id)\r\n        public\r\n        view\r\n        returns (string[] memory)\r\n    {\r\n        return getCitizen(id).connecting_countries;\r\n    }\r\n\r\n    function setCitizenConnectingCountries(uint256 id, string[] memory cc)\r\n        internal\r\n    {\r\n        require(citizenHashMap[id].id == id, \"Citizen does not exist\");\r\n        citizenHashMap[id].connecting_countries = cc;\r\n    }\r\n\r\n    function getCitizenArrival(uint256 id) public view returns (string memory) {\r\n        return getCitizen(id).arrival;\r\n    }\r\n\r\n    function setCitizenArrival(uint256 id, string memory ari) internal {\r\n        require(citizenHashMap[id].id == id, \"Citizen does not exist\");\r\n        citizenHashMap[id].arrival = ari;\r\n    }\r\n}\r\n",
  "sourcePath": "C:\\Users\\Jaimik Patel\\Desktop\\ttd\\contracts\\Citizen.sol",
  "compiler": {
    "name": "solc",
    "version": "0.8.13+commit.abaa5c0e.Emscripten.clang"
  },
  "schemaVersion": "3.4.6",
  "updatedAt": "2022-05-30T14:42:15.415Z",
  "devdoc": {
    "kind": "dev",
    "methods": {},
    "version": 1
  },
  "userdoc": {
    "kind": "user",
    "methods": {},
    "version": 1
  }
}