{
  "contractName": "Country",
  "abi": [
    {
      "inputs": [
        {
          "internalType": "string",
          "name": "country_name",
          "type": "string"
        },
        {
          "internalType": "string",
          "name": "blacklist_country_name",
          "type": "string"
        }
      ],
      "name": "blacklist_country",
      "outputs": [],
      "stateMutability": "nonpayable",
      "type": "function"
    },
    {
      "inputs": [
        {
          "internalType": "string",
          "name": "country_name",
          "type": "string"
        },
        {
          "internalType": "string",
          "name": "at_risk_country_name",
          "type": "string"
        }
      ],
      "name": "at_risk_country",
      "outputs": [],
      "stateMutability": "nonpayable",
      "type": "function"
    }
  ],
  "bytecode": "0x608060405234801561001057600080fd5b50610751806100206000396000f3fe608060405234801561001057600080fd5b50600436106100365760003560e01c806339196c0a1461003b57806352daf25214610057575b600080fd5b6100556004803603810190610050919061048a565b610073565b005b610071600480360381019061006c919061048a565b610180565b005b81604051602001610084919061057c565b604051602081830303815290604052805190602001206000836040516100aa919061057c565b90815260200160405180910390206001016040516020016100cb9190610687565b6040516020818303038152906040528051906020012014610121576040517f08c379a0000000000000000000000000000000000000000000000000000000008152600401610118906106fb565b60405180910390fd5b600082604051610131919061057c565b90815260200160405180910390206003018190806001815401808255809150506001900390600052602060002001600090919091909150908051906020019061017b92919061028d565b505050565b81604051602001610191919061057c565b604051602081830303815290604052805190602001206000836040516101b7919061057c565b90815260200160405180910390206001016040516020016101d89190610687565b604051602081830303815290604052805190602001201461022e576040517f08c379a0000000000000000000000000000000000000000000000000000000008152600401610225906106fb565b60405180910390fd5b60008260405161023e919061057c565b90815260200160405180910390206002018190806001815401808255809150506001900390600052602060002001600090919091909150908051906020019061028892919061028d565b505050565b828054610299906105c2565b90600052602060002090601f0160209004810192826102bb5760008555610302565b82601f106102d457805160ff1916838001178555610302565b82800160010185558215610302579182015b828111156103015782518255916020019190600101906102e6565b5b50905061030f9190610313565b5090565b5b8082111561032c576000816000905550600101610314565b5090565b6000604051905090565b600080fd5b600080fd5b600080fd5b600080fd5b6000601f19601f8301169050919050565b7f4e487b7100000000000000000000000000000000000000000000000000000000600052604160045260246000fd5b6103978261034e565b810181811067ffffffffffffffff821117156103b6576103b561035f565b5b80604052505050565b60006103c9610330565b90506103d5828261038e565b919050565b600067ffffffffffffffff8211156103f5576103f461035f565b5b6103fe8261034e565b9050602081019050919050565b82818337600083830152505050565b600061042d610428846103da565b6103bf565b90508281526020810184848401111561044957610448610349565b5b61045484828561040b565b509392505050565b600082601f83011261047157610470610344565b5b813561048184826020860161041a565b91505092915050565b600080604083850312156104a1576104a061033a565b5b600083013567ffffffffffffffff8111156104bf576104be61033f565b5b6104cb8582860161045c565b925050602083013567ffffffffffffffff8111156104ec576104eb61033f565b5b6104f88582860161045c565b9150509250929050565b600081519050919050565b600081905092915050565b60005b8381101561053657808201518184015260208101905061051b565b83811115610545576000848401525b50505050565b600061055682610502565b610560818561050d565b9350610570818560208601610518565b80840191505092915050565b6000610588828461054b565b915081905092915050565b7f4e487b7100000000000000000000000000000000000000000000000000000000600052602260045260246000fd5b600060028204905060018216806105da57607f821691505b6020821081036105ed576105ec610593565b5b50919050565b60008190508160005260206000209050919050565b60008154610615816105c2565b61061f818661050d565b9450600182166000811461063a576001811461064b5761067e565b60ff1983168652818601935061067e565b610654856105f3565b60005b8381101561067657815481890152600182019150602081019050610657565b838801955050505b50505092915050565b60006106938284610608565b915081905092915050565b600082825260208201905092915050565b7f5468697320636f756e74727920646f6573206e6f742065786973740000000000600082015250565b60006106e5601b8361069e565b91506106f0826106af565b602082019050919050565b60006020820190508181036000830152610714816106d8565b905091905056fea264697066735822122069276e5f10b82eb6ed658a96715838cd01ff82c2f64cf6b56c6ceaf8599ea86864736f6c634300080d0033",
  "immutableReferences": {},
  "source": "// SPDX-License-Identifier: MIT\r\n\r\npragma solidity >=0.7.0 <0.9.0;\r\n\r\ncontract Country {\r\n    struct country {\r\n        uint256 id;\r\n        string country_name;\r\n        string[] blacklisted_countries;\r\n        string[] at_risk_countries;\r\n    }\r\n\r\n    mapping(string => Country.country) countryHashMap;\r\n\r\n    function blacklist_country(\r\n        string memory country_name,\r\n        string memory blacklist_country_name\r\n    ) public {\r\n        // require(countryHashMap[country_name].country_name == country_name, \"Flight does not exist\");\r\n        require(\r\n            keccak256(\r\n                abi.encodePacked(countryHashMap[country_name].country_name)\r\n            ) == keccak256(abi.encodePacked(country_name)),\r\n            \"This country does not exist\"\r\n        );\r\n\r\n        countryHashMap[country_name].blacklisted_countries.push(\r\n            blacklist_country_name\r\n        );\r\n    }\r\n\r\n    function at_risk_country(\r\n        string memory country_name,\r\n        string memory at_risk_country_name\r\n    ) public {\r\n        // require(countryHashMap[country_name].country_name == country_name, \"Flight does not exist\");\r\n\r\n        require(\r\n            keccak256(\r\n                abi.encodePacked(countryHashMap[country_name].country_name)\r\n            ) == keccak256(abi.encodePacked(country_name)),\r\n            \"This country does not exist\"\r\n        );\r\n\r\n        countryHashMap[country_name].at_risk_countries.push(\r\n            at_risk_country_name\r\n        );\r\n    }\r\n}\r\n",
  "sourcePath": "C:\\Users\\Jaimik Patel\\Desktop\\ttd\\contracts\\Country.sol",
  "compiler": {
    "name": "solc",
    "version": "0.8.13+commit.abaa5c0e.Emscripten.clang"
  },
  "schemaVersion": "3.4.6",
  "updatedAt": "2022-05-30T14:42:15.459Z",
  "devdoc": {
    "kind": "dev",
    "methods": {},
    "version": 1
  },
  "userdoc": {
    "kind": "user",
    "methods": {},
    "version": 1
  }
}