{
  "contractName": "Flight",
  "abi": [
    {
      "inputs": [
        {
          "internalType": "uint256",
          "name": "id",
          "type": "uint256"
        }
      ],
      "name": "getFlight",
      "outputs": [
        {
          "components": [
            {
              "internalType": "uint256",
              "name": "id",
              "type": "uint256"
            },
            {
              "internalType": "string",
              "name": "code",
              "type": "string"
            },
            {
              "internalType": "string",
              "name": "name",
              "type": "string"
            },
            {
              "internalType": "string",
              "name": "operator",
              "type": "string"
            },
            {
              "internalType": "string",
              "name": "departure_airport_code",
              "type": "string"
            },
            {
              "internalType": "string",
              "name": "arrival_airport_code",
              "type": "string"
            }
          ],
          "internalType": "struct Flight.flight",
          "name": "",
          "type": "tuple"
        }
      ],
      "stateMutability": "view",
      "type": "function"
    },
    {
      "inputs": [
        {
          "internalType": "uint256",
          "name": "id",
          "type": "uint256"
        }
      ],
      "name": "getFlightDeparture",
      "outputs": [
        {
          "internalType": "string",
          "name": "",
          "type": "string"
        }
      ],
      "stateMutability": "view",
      "type": "function"
    },
    {
      "inputs": [
        {
          "internalType": "uint256",
          "name": "id",
          "type": "uint256"
        }
      ],
      "name": "getFlightArrival",
      "outputs": [
        {
          "internalType": "string",
          "name": "",
          "type": "string"
        }
      ],
      "stateMutability": "view",
      "type": "function"
    }
  ],
  "bytecode": "0x608060405234801561001057600080fd5b50610ed8806100206000396000f3fe608060405234801561001057600080fd5b50600436106100415760003560e01c8063289c715b146100465780633a4396cb14610076578063ff89be2f146100a6575b600080fd5b610060600480360381019061005b9190610b62565b6100d6565b60405161006d9190610c28565b60405180910390f35b610090600480360381019061008b9190610b62565b610430565b60405161009d9190610d48565b60405180910390f35b6100c060048036038101906100bb9190610b62565b610797565b6040516100cd9190610c28565b60405180910390f35b606060008060008481526020019081526020016000206040518060c00160405290816000820154815260200160018201805461011190610d99565b80601f016020809104026020016040519081016040528092919081815260200182805461013d90610d99565b801561018a5780601f1061015f5761010080835404028352916020019161018a565b820191906000526020600020905b81548152906001019060200180831161016d57829003601f168201915b505050505081526020016002820180546101a390610d99565b80601f01602080910402602001604051908101604052809291908181526020018280546101cf90610d99565b801561021c5780601f106101f15761010080835404028352916020019161021c565b820191906000526020600020905b8154815290600101906020018083116101ff57829003601f168201915b5050505050815260200160038201805461023590610d99565b80601f016020809104026020016040519081016040528092919081815260200182805461026190610d99565b80156102ae5780601f10610283576101008083540402835291602001916102ae565b820191906000526020600020905b81548152906001019060200180831161029157829003601f168201915b505050505081526020016004820180546102c790610d99565b80601f01602080910402602001604051908101604052809291908181526020018280546102f390610d99565b80156103405780601f1061031557610100808354040283529160200191610340565b820191906000526020600020905b81548152906001019060200180831161032357829003601f168201915b5050505050815260200160058201805461035990610d99565b80601f016020809104026020016040519081016040528092919081815260200182805461038590610d99565b80156103d25780601f106103a7576101008083540402835291602001916103d2565b820191906000526020600020905b8154815290600101906020018083116103b557829003601f168201915b505050505081525050905082816000015114610423576040517f08c379a000000000000000000000000000000000000000000000000000000000815260040161041a90610e16565b60405180910390fd5b8060800151915050919050565b610438610af1565b81600080848152602001908152602001600020600001541461048f576040517f08c379a000000000000000000000000000000000000000000000000000000000815260040161048690610e82565b60405180910390fd5b6000808381526020019081526020016000206040518060c0016040529081600082015481526020016001820180546104c690610d99565b80601f01602080910402602001604051908101604052809291908181526020018280546104f290610d99565b801561053f5780601f106105145761010080835404028352916020019161053f565b820191906000526020600020905b81548152906001019060200180831161052257829003601f168201915b5050505050815260200160028201805461055890610d99565b80601f016020809104026020016040519081016040528092919081815260200182805461058490610d99565b80156105d15780601f106105a6576101008083540402835291602001916105d1565b820191906000526020600020905b8154815290600101906020018083116105b457829003601f168201915b505050505081526020016003820180546105ea90610d99565b80601f016020809104026020016040519081016040528092919081815260200182805461061690610d99565b80156106635780601f1061063857610100808354040283529160200191610663565b820191906000526020600020905b81548152906001019060200180831161064657829003601f168201915b5050505050815260200160048201805461067c90610d99565b80601f01602080910402602001604051908101604052809291908181526020018280546106a890610d99565b80156106f55780601f106106ca576101008083540402835291602001916106f5565b820191906000526020600020905b8154815290600101906020018083116106d857829003601f168201915b5050505050815260200160058201805461070e90610d99565b80601f016020809104026020016040519081016040528092919081815260200182805461073a90610d99565b80156107875780601f1061075c57610100808354040283529160200191610787565b820191906000526020600020905b81548152906001019060200180831161076a57829003601f168201915b5050505050815250509050919050565b606060008060008481526020019081526020016000206040518060c0016040529081600082015481526020016001820180546107d290610d99565b80601f01602080910402602001604051908101604052809291908181526020018280546107fe90610d99565b801561084b5780601f106108205761010080835404028352916020019161084b565b820191906000526020600020905b81548152906001019060200180831161082e57829003601f168201915b5050505050815260200160028201805461086490610d99565b80601f016020809104026020016040519081016040528092919081815260200182805461089090610d99565b80156108dd5780601f106108b2576101008083540402835291602001916108dd565b820191906000526020600020905b8154815290600101906020018083116108c057829003601f168201915b505050505081526020016003820180546108f690610d99565b80601f016020809104026020016040519081016040528092919081815260200182805461092290610d99565b801561096f5780601f106109445761010080835404028352916020019161096f565b820191906000526020600020905b81548152906001019060200180831161095257829003601f168201915b5050505050815260200160048201805461098890610d99565b80601f01602080910402602001604051908101604052809291908181526020018280546109b490610d99565b8015610a015780601f106109d657610100808354040283529160200191610a01565b820191906000526020600020905b8154815290600101906020018083116109e457829003601f168201915b50505050508152602001600582018054610a1a90610d99565b80601f0160208091040260200160405190810160405280929190818152602001828054610a4690610d99565b8015610a935780601f10610a6857610100808354040283529160200191610a93565b820191906000526020600020905b815481529060010190602001808311610a7657829003601f168201915b505050505081525050905082816000015114610ae4576040517f08c379a0000000000000000000000000000000000000000000000000000000008152600401610adb90610e16565b60405180910390fd5b8060a00151915050919050565b6040518060c001604052806000815260200160608152602001606081526020016060815260200160608152602001606081525090565b600080fd5b6000819050919050565b610b3f81610b2c565b8114610b4a57600080fd5b50565b600081359050610b5c81610b36565b92915050565b600060208284031215610b7857610b77610b27565b5b6000610b8684828501610b4d565b91505092915050565b600081519050919050565b600082825260208201905092915050565b60005b83811015610bc9578082015181840152602081019050610bae565b83811115610bd8576000848401525b50505050565b6000601f19601f8301169050919050565b6000610bfa82610b8f565b610c048185610b9a565b9350610c14818560208601610bab565b610c1d81610bde565b840191505092915050565b60006020820190508181036000830152610c428184610bef565b905092915050565b610c5381610b2c565b82525050565b600082825260208201905092915050565b6000610c7582610b8f565b610c7f8185610c59565b9350610c8f818560208601610bab565b610c9881610bde565b840191505092915050565b600060c083016000830151610cbb6000860182610c4a565b5060208301518482036020860152610cd38282610c6a565b91505060408301518482036040860152610ced8282610c6a565b91505060608301518482036060860152610d078282610c6a565b91505060808301518482036080860152610d218282610c6a565b91505060a083015184820360a0860152610d3b8282610c6a565b9150508091505092915050565b60006020820190508181036000830152610d628184610ca3565b905092915050565b7f4e487b7100000000000000000000000000000000000000000000000000000000600052602260045260246000fd5b60006002820490506001821680610db157607f821691505b602082108103610dc457610dc3610d6a565b5b50919050565b7f466c6967687420646f6573206e6f742065786973747300000000000000000000600082015250565b6000610e00601683610b9a565b9150610e0b82610dca565b602082019050919050565b60006020820190508181036000830152610e2f81610df3565b9050919050565b7f466c6967687420646f6573206e6f742065786973740000000000000000000000600082015250565b6000610e6c601583610b9a565b9150610e7782610e36565b602082019050919050565b60006020820190508181036000830152610e9b81610e5f565b905091905056fea26469706673582212209f7f5b21aee201e3aa1bfada607eed846d995210b34c44ae4b50f963b9bb319e64736f6c634300080d0033",
  "immutableReferences": {},
  "source": "// SPDX-License-Identifier: MIT\r\n\r\npragma solidity >=0.7.0 <0.9.0;\r\n\r\ncontract Flight {\r\n    struct flight {\r\n        uint256 id;\r\n        string code;\r\n        string name;\r\n        string operator;\r\n        string departure_airport_code;\r\n        string arrival_airport_code;\r\n    }\r\n\r\n    mapping(uint256 => flight) planeHashMap;\r\n\r\n    function getFlight(uint256 id) public view returns (Flight.flight memory) {\r\n        require(planeHashMap[id].id == id, \"Flight does not exist\");\r\n        return planeHashMap[id];\r\n    }\r\n\r\n    function setFlight(\r\n        uint256 flight_id,\r\n        string memory code,\r\n        string memory flight_name,\r\n        string memory operator,\r\n        string memory departure_airport_code,\r\n        string memory arrival_airport_code\r\n    ) internal {\r\n        require(\r\n            planeHashMap[flight_id].id != flight_id,\r\n            \"Flight already exists\"\r\n        );\r\n        planeHashMap[flight_id] = Flight.flight(\r\n            flight_id,\r\n            code,\r\n            flight_name,\r\n            operator,\r\n            departure_airport_code,\r\n            arrival_airport_code\r\n        );\r\n    }\r\n\r\n    function getFlightDeparture(uint256 id)\r\n        public\r\n        view\r\n        returns (string memory)\r\n    {\r\n        Flight.flight memory p = planeHashMap[id];\r\n        require(p.id == id, \"Flight does not exists\");\r\n        return p.departure_airport_code;\r\n    }\r\n\r\n    function getFlightArrival(uint256 id)\r\n        public\r\n        view\r\n        returns (string memory)\r\n    {\r\n        Flight.flight memory p = planeHashMap[id];\r\n        require(p.id == id, \"Flight does not exists\");\r\n        return p.arrival_airport_code;\r\n    }\r\n}\r\n",
  "sourcePath": "C:\\Users\\Jaimik Patel\\Desktop\\ttd\\contracts\\Flight.sol",
  "compiler": {
    "name": "solc",
    "version": "0.8.13+commit.abaa5c0e.Emscripten.clang"
  },
  "schemaVersion": "3.4.6",
  "updatedAt": "2022-05-30T14:42:15.469Z",
  "devdoc": {
    "kind": "dev",
    "methods": {},
    "version": 1
  },
  "userdoc": {
    "kind": "user",
    "methods": {},
    "version": 1
  }
}