{
  "contractName": "Immigration",
  "abi": [
    {
      "inputs": [
        {
          "internalType": "uint256",
          "name": "id",
          "type": "uint256"
        },
        {
          "internalType": "string",
          "name": "pn",
          "type": "string"
        },
        {
          "internalType": "string",
          "name": "nam",
          "type": "string"
        },
        {
          "internalType": "string",
          "name": "dateOfBirth",
          "type": "string"
        },
        {
          "internalType": "string",
          "name": "nation",
          "type": "string"
        }
      ],
      "name": "createNewCitizen",
      "outputs": [],
      "stateMutability": "nonpayable",
      "type": "function"
    },
    {
      "inputs": [
        {
          "internalType": "uint256",
          "name": "id",
          "type": "uint256"
        }
      ],
      "name": "getLastKnownLocation",
      "outputs": [
        {
          "internalType": "string",
          "name": "",
          "type": "string"
        }
      ],
      "stateMutability": "view",
      "type": "function",
      "constant": true
    },
    {
      "inputs": [
        {
          "internalType": "uint256",
          "name": "flight_id",
          "type": "uint256"
        },
        {
          "internalType": "string",
          "name": "code",
          "type": "string"
        },
        {
          "internalType": "string",
          "name": "flight_name",
          "type": "string"
        },
        {
          "internalType": "string",
          "name": "operator",
          "type": "string"
        },
        {
          "internalType": "string",
          "name": "departure_airport_code",
          "type": "string"
        },
        {
          "internalType": "string",
          "name": "arrival_airport_code",
          "type": "string"
        }
      ],
      "name": "createNewFlight",
      "outputs": [],
      "stateMutability": "nonpayable",
      "type": "function"
    },
    {
      "inputs": [
        {
          "internalType": "uint256",
          "name": "id",
          "type": "uint256"
        }
      ],
      "name": "getFlightDeparture",
      "outputs": [
        {
          "internalType": "string",
          "name": "",
          "type": "string"
        }
      ],
      "stateMutability": "view",
      "type": "function",
      "constant": true
    },
    {
      "inputs": [
        {
          "internalType": "uint256",
          "name": "citizen_id",
          "type": "uint256"
        },
        {
          "internalType": "uint256",
          "name": "flight_id",
          "type": "uint256"
        }
      ],
      "name": "checkIllegalTravel",
      "outputs": [],
      "stateMutability": "view",
      "type": "function",
      "constant": true
    },
    {
      "inputs": [
        {
          "internalType": "uint256",
          "name": "citizen_id",
          "type": "uint256"
        },
        {
          "internalType": "uint256",
          "name": "flight_id",
          "type": "uint256"
        }
      ],
      "name": "addPersonToFlight",
      "outputs": [],
      "stateMutability": "nonpayable",
      "type": "function"
    }
  ],
  "bytecode": "0x608060405234801561001057600080fd5b50611f03806100206000396000f3fe608060405234801561001057600080fd5b50600436106100625760003560e01c806307e97bf81461006757806316f8c2b314610097578063289c715b146100b357806338ff7868146100e35780638c807fc2146100ff578063a37a11be1461011b575b600080fd5b610081600480360381019061007c919061179d565b610137565b60405161008e9190611863565b60405180910390f35b6100b160048036038101906100ac9190611885565b610492565b005b6100cd60048036038101906100c8919061179d565b610cbc565b6040516100da9190611863565b60405180910390f35b6100fd60048036038101906100f891906119fa565b611017565b005b61011960048036038101906101149190611b13565b611155565b005b61013560048036038101906101309190611885565b611292565b005b60606000600160008481526020019081526020016000206040518060c00160405290816000820154815260200160018201805461017390611c2d565b80601f016020809104026020016040519081016040528092919081815260200182805461019f90611c2d565b80156101ec5780601f106101c1576101008083540402835291602001916101ec565b820191906000526020600020905b8154815290600101906020018083116101cf57829003601f168201915b5050505050815260200160028201805461020590611c2d565b80601f016020809104026020016040519081016040528092919081815260200182805461023190611c2d565b801561027e5780601f106102535761010080835404028352916020019161027e565b820191906000526020600020905b81548152906001019060200180831161026157829003601f168201915b5050505050815260200160038201805461029790611c2d565b80601f01602080910402602001604051908101604052809291908181526020018280546102c390611c2d565b80156103105780601f106102e557610100808354040283529160200191610310565b820191906000526020600020905b8154815290600101906020018083116102f357829003601f168201915b5050505050815260200160048201805461032990611c2d565b80601f016020809104026020016040519081016040528092919081815260200182805461035590611c2d565b80156103a25780601f10610377576101008083540402835291602001916103a2565b820191906000526020600020905b81548152906001019060200180831161038557829003601f168201915b505050505081526020016005820180546103bb90611c2d565b80601f01602080910402602001604051908101604052809291908181526020018280546103e790611c2d565b80156104345780601f1061040957610100808354040283529160200191610434565b820191906000526020600020905b81548152906001019060200180831161041757829003601f168201915b505050505081525050905082816000015114610485576040517f08c379a000000000000000000000000000000000000000000000000000000000815260040161047c90611caa565b60405180910390fd5b8060800151915050919050565b6000600160008481526020019081526020016000206040518060c0016040529081600082015481526020016001820180546104cc90611c2d565b80601f01602080910402602001604051908101604052809291908181526020018280546104f890611c2d565b80156105455780601f1061051a57610100808354040283529160200191610545565b820191906000526020600020905b81548152906001019060200180831161052857829003601f168201915b5050505050815260200160028201805461055e90611c2d565b80601f016020809104026020016040519081016040528092919081815260200182805461058a90611c2d565b80156105d75780601f106105ac576101008083540402835291602001916105d7565b820191906000526020600020905b8154815290600101906020018083116105ba57829003601f168201915b505050505081526020016003820180546105f090611c2d565b80601f016020809104026020016040519081016040528092919081815260200182805461061c90611c2d565b80156106695780601f1061063e57610100808354040283529160200191610669565b820191906000526020600020905b81548152906001019060200180831161064c57829003601f168201915b5050505050815260200160048201805461068290611c2d565b80601f01602080910402602001604051908101604052809291908181526020018280546106ae90611c2d565b80156106fb5780601f106106d0576101008083540402835291602001916106fb565b820191906000526020600020905b8154815290600101906020018083116106de57829003601f168201915b5050505050815260200160058201805461071490611c2d565b80601f016020809104026020016040519081016040528092919081815260200182805461074090611c2d565b801561078d5780601f106107625761010080835404028352916020019161078d565b820191906000526020600020905b81548152906001019060200180831161077057829003601f168201915b5050505050815250509050828160000151146107de576040517f08c379a00000000000000000000000000000000000000000000000000000000081526004016107d590611caa565b60405180910390fd5b6000600260008481526020019081526020016000206040518060c00160405290816000820154815260200160018201805461081890611c2d565b80601f016020809104026020016040519081016040528092919081815260200182805461084490611c2d565b80156108915780601f1061086657610100808354040283529160200191610891565b820191906000526020600020905b81548152906001019060200180831161087457829003601f168201915b505050505081526020016002820180546108aa90611c2d565b80601f01602080910402602001604051908101604052809291908181526020018280546108d690611c2d565b80156109235780601f106108f857610100808354040283529160200191610923565b820191906000526020600020905b81548152906001019060200180831161090657829003601f168201915b5050505050815260200160038201805461093c90611c2d565b80601f016020809104026020016040519081016040528092919081815260200182805461096890611c2d565b80156109b55780601f1061098a576101008083540402835291602001916109b5565b820191906000526020600020905b81548152906001019060200180831161099857829003601f168201915b505050505081526020016004820180546109ce90611c2d565b80601f01602080910402602001604051908101604052809291908181526020018280546109fa90611c2d565b8015610a475780601f10610a1c57610100808354040283529160200191610a47565b820191906000526020600020905b815481529060010190602001808311610a2a57829003601f168201915b50505050508152602001600582018054610a6090611c2d565b80601f0160208091040260200160405190810160405280929190818152602001828054610a8c90611c2d565b8015610ad95780601f10610aae57610100808354040283529160200191610ad9565b820191906000526020600020905b815481529060010190602001808311610abc57829003601f168201915b505050505081525050905082816000015114610b2a576040517f08c379a0000000000000000000000000000000000000000000000000000000008152600401610b2190611d16565b60405180910390fd5b610b348484611292565b60036000848152602001908152602001600020829080600181540180825580915050600190039060005260206000209060060201600090919091909150600082015181600001556020820151816001019080519060200190610b979291906116b0565b506040820151816002019080519060200190610bb49291906116b0565b506060820151816003019080519060200190610bd19291906116b0565b506080820151816004019080519060200190610bee9291906116b0565b5060a0820151816005019080519060200190610c0b9291906116b0565b505050610cb684600260008681526020019081526020016000206005018054610c3390611c2d565b80601f0160208091040260200160405190810160405280929190818152602001828054610c5f90611c2d565b8015610cac5780601f10610c8157610100808354040283529160200191610cac565b820191906000526020600020905b815481529060010190602001808311610c8f57829003601f168201915b5050505050611334565b50505050565b60606000600260008481526020019081526020016000206040518060c001604052908160008201548152602001600182018054610cf890611c2d565b80601f0160208091040260200160405190810160405280929190818152602001828054610d2490611c2d565b8015610d715780601f10610d4657610100808354040283529160200191610d71565b820191906000526020600020905b815481529060010190602001808311610d5457829003601f168201915b50505050508152602001600282018054610d8a90611c2d565b80601f0160208091040260200160405190810160405280929190818152602001828054610db690611c2d565b8015610e035780601f10610dd857610100808354040283529160200191610e03565b820191906000526020600020905b815481529060010190602001808311610de657829003601f168201915b50505050508152602001600382018054610e1c90611c2d565b80601f0160208091040260200160405190810160405280929190818152602001828054610e4890611c2d565b8015610e955780601f10610e6a57610100808354040283529160200191610e95565b820191906000526020600020905b815481529060010190602001808311610e7857829003601f168201915b50505050508152602001600482018054610eae90611c2d565b80601f0160208091040260200160405190810160405280929190818152602001828054610eda90611c2d565b8015610f275780601f10610efc57610100808354040283529160200191610f27565b820191906000526020600020905b815481529060010190602001808311610f0a57829003601f168201915b50505050508152602001600582018054610f4090611c2d565b80601f0160208091040260200160405190810160405280929190818152602001828054610f6c90611c2d565b8015610fb95780601f10610f8e57610100808354040283529160200191610fb9565b820191906000526020600020905b815481529060010190602001808311610f9c57829003601f168201915b50505050508152505090508281600001511461100a576040517f08c379a000000000000000000000000000000000000000000000000000000000815260040161100190611d16565b60405180910390fd5b8060800151915050919050565b8560026000888152602001908152602001600020600001540361106f576040517f08c379a000000000000000000000000000000000000000000000000000000000815260040161106690611d82565b60405180910390fd5b6040518060c0016040528087815260200186815260200185815260200184815260200183815260200182815250600260008881526020019081526020016000206000820151816000015560208201518160010190805190602001906110d59291906116b0565b5060408201518160020190805190602001906110f29291906116b0565b50606082015181600301908051906020019061110f9291906116b0565b50608082015181600401908051906020019061112c9291906116b0565b5060a08201518160050190805190602001906111499291906116b0565b50905050505050505050565b846001600087815260200190815260200160002060000154036111ad576040517f08c379a00000000000000000000000000000000000000000000000000000000081526004016111a490611dee565b60405180910390fd5b6040518060c0016040528086815260200185815260200184815260200183815260200182815260200182815250600160008781526020019081526020016000206000820151816000015560208201518160010190805190602001906112139291906116b0565b5060408201518160020190805190602001906112309291906116b0565b50606082015181600301908051906020019061124d9291906116b0565b50608082015181600401908051906020019061126a9291906116b0565b5060a08201518160050190805190602001906112879291906116b0565b509050505050505050565b61129b82610137565b6040516020016112ab9190611e4a565b604051602081830303815290604052805190602001206112ca82610cbc565b6040516020016112da9190611e4a565b6040516020818303038152906040528051906020012014611330576040517f08c379a000000000000000000000000000000000000000000000000000000000815260040161132790611ead565b60405180910390fd5b5050565b6000600160008481526020019081526020016000206040518060c00160405290816000820154815260200160018201805461136e90611c2d565b80601f016020809104026020016040519081016040528092919081815260200182805461139a90611c2d565b80156113e75780601f106113bc576101008083540402835291602001916113e7565b820191906000526020600020905b8154815290600101906020018083116113ca57829003601f168201915b5050505050815260200160028201805461140090611c2d565b80601f016020809104026020016040519081016040528092919081815260200182805461142c90611c2d565b80156114795780601f1061144e57610100808354040283529160200191611479565b820191906000526020600020905b81548152906001019060200180831161145c57829003601f168201915b5050505050815260200160038201805461149290611c2d565b80601f01602080910402602001604051908101604052809291908181526020018280546114be90611c2d565b801561150b5780601f106114e05761010080835404028352916020019161150b565b820191906000526020600020905b8154815290600101906020018083116114ee57829003601f168201915b5050505050815260200160048201805461152490611c2d565b80601f016020809104026020016040519081016040528092919081815260200182805461155090611c2d565b801561159d5780601f106115725761010080835404028352916020019161159d565b820191906000526020600020905b81548152906001019060200180831161158057829003601f168201915b505050505081526020016005820180546115b690611c2d565b80601f01602080910402602001604051908101604052809291908181526020018280546115e290611c2d565b801561162f5780601f106116045761010080835404028352916020019161162f565b820191906000526020600020905b81548152906001019060200180831161161257829003601f168201915b505050505081525050905082816000015114611680576040517f08c379a000000000000000000000000000000000000000000000000000000000815260040161167790611caa565b60405180910390fd5b816001600085815260200190815260200160002060040190805190602001906116aa9291906116b0565b50505050565b8280546116bc90611c2d565b90600052602060002090601f0160209004810192826116de5760008555611725565b82601f106116f757805160ff1916838001178555611725565b82800160010185558215611725579182015b82811115611724578251825591602001919060010190611709565b5b5090506117329190611736565b5090565b5b8082111561174f576000816000905550600101611737565b5090565b6000604051905090565b600080fd5b600080fd5b6000819050919050565b61177a81611767565b811461178557600080fd5b50565b60008135905061179781611771565b92915050565b6000602082840312156117b3576117b261175d565b5b60006117c184828501611788565b91505092915050565b600081519050919050565b600082825260208201905092915050565b60005b838110156118045780820151818401526020810190506117e9565b83811115611813576000848401525b50505050565b6000601f19601f8301169050919050565b6000611835826117ca565b61183f81856117d5565b935061184f8185602086016117e6565b61185881611819565b840191505092915050565b6000602082019050818103600083015261187d818461182a565b905092915050565b6000806040838503121561189c5761189b61175d565b5b60006118aa85828601611788565b92505060206118bb85828601611788565b9150509250929050565b600080fd5b600080fd5b7f4e487b7100000000000000000000000000000000000000000000000000000000600052604160045260246000fd5b61190782611819565b810181811067ffffffffffffffff82111715611926576119256118cf565b5b80604052505050565b6000611939611753565b905061194582826118fe565b919050565b600067ffffffffffffffff821115611965576119646118cf565b5b61196e82611819565b9050602081019050919050565b82818337600083830152505050565b600061199d6119988461194a565b61192f565b9050828152602081018484840111156119b9576119b86118ca565b5b6119c484828561197b565b509392505050565b600082601f8301126119e1576119e06118c5565b5b81356119f184826020860161198a565b91505092915050565b60008060008060008060c08789031215611a1757611a1661175d565b5b6000611a2589828a01611788565b965050602087013567ffffffffffffffff811115611a4657611a45611762565b5b611a5289828a016119cc565b955050604087013567ffffffffffffffff811115611a7357611a72611762565b5b611a7f89828a016119cc565b945050606087013567ffffffffffffffff811115611aa057611a9f611762565b5b611aac89828a016119cc565b935050608087013567ffffffffffffffff811115611acd57611acc611762565b5b611ad989828a016119cc565b92505060a087013567ffffffffffffffff811115611afa57611af9611762565b5b611b0689828a016119cc565b9150509295509295509295565b600080600080600060a08688031215611b2f57611b2e61175d565b5b6000611b3d88828901611788565b955050602086013567ffffffffffffffff811115611b5e57611b5d611762565b5b611b6a888289016119cc565b945050604086013567ffffffffffffffff811115611b8b57611b8a611762565b5b611b97888289016119cc565b935050606086013567ffffffffffffffff811115611bb857611bb7611762565b5b611bc4888289016119cc565b925050608086013567ffffffffffffffff811115611be557611be4611762565b5b611bf1888289016119cc565b9150509295509295909350565b7f4e487b7100000000000000000000000000000000000000000000000000000000600052602260045260246000fd5b60006002820490506001821680611c4557607f821691505b602082108103611c5857611c57611bfe565b5b50919050565b7f436974697a656e20646f6573206e6f7420657869737473000000000000000000600082015250565b6000611c946017836117d5565b9150611c9f82611c5e565b602082019050919050565b60006020820190508181036000830152611cc381611c87565b9050919050565b7f466c6967687420646f6573206e6f742065786973747300000000000000000000600082015250565b6000611d006016836117d5565b9150611d0b82611cca565b602082019050919050565b60006020820190508181036000830152611d2f81611cf3565b9050919050565b7f466c6967687420616c7265616479206578697374730000000000000000000000600082015250565b6000611d6c6015836117d5565b9150611d7782611d36565b602082019050919050565b60006020820190508181036000830152611d9b81611d5f565b9050919050565b7f436974697a656e20616c72656164792065786973747300000000000000000000600082015250565b6000611dd86016836117d5565b9150611de382611da2565b602082019050919050565b60006020820190508181036000830152611e0781611dcb565b9050919050565b600081905092915050565b6000611e24826117ca565b611e2e8185611e0e565b9350611e3e8185602086016117e6565b80840191505092915050565b6000611e568284611e19565b915081905092915050565b7f496c6c6567616c2054726176656c000000000000000000000000000000000000600082015250565b6000611e97600e836117d5565b9150611ea282611e61565b602082019050919050565b60006020820190508181036000830152611ec681611e8a565b905091905056fea264697066735822122082fd73111a103a49319e7f1e6386f0ab3ac1a0fb68c0b22bc3f18da18378d66d64736f6c634300080d0033",
  "immutableReferences": {},
  "source": "// SPDX-License-Identifier: GPL-3.0\r\n\r\npragma solidity >=0.7.0 <0.9.0;\r\n\r\ncontract Immigration {\r\n\r\n    // security\r\n    address creator;\r\n    modifier onlyCreator() {\r\n        require(msg.sender == creator);\r\n        _;                             \r\n    } \r\n\r\n    //data structure & variables\r\n    struct Citizen{\r\n        uint id;\r\n        string passport_number;\r\n        string name;\r\n        string dob;\r\n        string last_known_location;\r\n        string nationality;\r\n    }\r\n    struct Flight {\r\n        uint id;\r\n        string code; \r\n        string name;\r\n        string operator;\r\n        string departure_airport_code;\r\n        string arrival_airport_code;\r\n    }\r\n    mapping(uint => Citizen) citizenHashMap;\r\n    mapping(uint => Flight) planeHashMap;\r\n    mapping(uint => Citizen[]) passengersInFlight;\r\n    \r\n    // citizen functions\r\n    function createNewCitizen(uint id, string memory pn, string memory nam, string memory dateOfBirth, string memory nation) public{\r\n        require(citizenHashMap[id].id!=id, \"Citizen already exists\");\r\n        citizenHashMap[id] = Citizen(id, pn, nam, dateOfBirth, nation, nation);\r\n    }\r\n\r\n    function changeLastKnownLocation(uint id, string memory lkl) private {\r\n        Citizen memory p = citizenHashMap[id];\r\n        require(p.id==id, \"Citizen does not exists\");\r\n        citizenHashMap[id].last_known_location = lkl;\r\n    }\r\n\r\n    function getLastKnownLocation(uint id) public view returns (string memory) {\r\n        Citizen memory p = citizenHashMap[id];\r\n        require(p.id == id, \"Citizen does not exists\");\r\n        return p.last_known_location;\r\n    }\r\n\r\n    // flight functions\r\n    function createNewFlight(uint flight_id, string memory code, string memory flight_name, string memory operator, string memory departure_airport_code, string memory arrival_airport_code) public{\r\n        require(planeHashMap[flight_id].id!=flight_id, \"Flight already exists\");\r\n        planeHashMap[flight_id] = Flight(flight_id, code, flight_name, operator, departure_airport_code, arrival_airport_code);\r\n    }\r\n\r\n    function getFlightDeparture(uint id) public view returns (string memory) {\r\n        Flight memory p = planeHashMap[id];\r\n        require(p.id==id, \"Flight does not exists\");\r\n        return p.departure_airport_code;\r\n    }\r\n\r\n    function checkIllegalTravel(uint citizen_id, uint flight_id) public view{\r\n        require(\r\n                keccak256(abi.encodePacked(getFlightDeparture(flight_id)))\r\n                == \r\n                keccak256(abi.encodePacked(getLastKnownLocation(citizen_id))),\r\n            \"Illegal Travel\"\r\n        );\r\n    }\r\n\r\n    function addPersonToFlight(uint citizen_id, uint flight_id) public{\r\n        Citizen memory c = citizenHashMap[citizen_id];\r\n        require(c.id==citizen_id, \"Citizen does not exists\");\r\n        Flight memory f = planeHashMap[flight_id];\r\n        require(f.id==flight_id, \"Flight does not exists\");\r\n\r\n        checkIllegalTravel(citizen_id, flight_id);\r\n\r\n        passengersInFlight[flight_id].push(c);\r\n\r\n        changeLastKnownLocation(citizen_id, planeHashMap[flight_id].arrival_airport_code);\r\n    }\r\n}",
  "sourcePath": "C:\\Users\\Jaimik Patel\\Desktop\\ttd\\contracts\\Immigration.sol",
  "compiler": {
    "name": "solc",
    "version": "0.8.13+commit.abaa5c0e.Emscripten.clang"
  },
  "schemaVersion": "3.4.6",
  "updatedAt": "2022-04-03T15:53:54.770Z",
  "networkType": "ethereum",
  "devdoc": {
    "kind": "dev",
    "methods": {},
    "version": 1
  },
  "userdoc": {
    "kind": "user",
    "methods": {},
    "version": 1
  }
}