{
  "contractName": "Immigration",
  "abi": [
    {
      "inputs": [
        {
          "internalType": "uint256",
          "name": "id",
          "type": "uint256"
        },
        {
          "internalType": "string",
          "name": "pn",
          "type": "string"
        },
        {
          "internalType": "string",
          "name": "nam",
          "type": "string"
        },
        {
          "internalType": "string",
          "name": "dateOfBirth",
          "type": "string"
        },
        {
          "internalType": "string",
          "name": "nation",
          "type": "string"
        }
      ],
      "name": "createNewCitizen",
      "outputs": [],
      "stateMutability": "nonpayable",
      "type": "function"
    },
    {
      "inputs": [
        {
          "internalType": "uint256",
          "name": "id",
          "type": "uint256"
        }
      ],
      "name": "getLastKnownLocation",
      "outputs": [
        {
          "internalType": "string",
          "name": "",
          "type": "string"
        }
      ],
      "stateMutability": "view",
      "type": "function",
      "constant": true
    },
    {
      "inputs": [
        {
          "internalType": "uint256",
          "name": "id",
          "type": "uint256"
        }
      ],
      "name": "getCitizen",
      "outputs": [
        {
          "components": [
            {
              "internalType": "uint256",
              "name": "id",
              "type": "uint256"
            },
            {
              "internalType": "string",
              "name": "passport_number",
              "type": "string"
            },
            {
              "internalType": "string",
              "name": "name",
              "type": "string"
            },
            {
              "internalType": "string",
              "name": "dob",
              "type": "string"
            },
            {
              "internalType": "string",
              "name": "last_known_location",
              "type": "string"
            },
            {
              "internalType": "string",
              "name": "nationality",
              "type": "string"
            }
          ],
          "internalType": "struct Immigration.Citizen",
          "name": "",
          "type": "tuple"
        }
      ],
      "stateMutability": "view",
      "type": "function",
      "constant": true
    },
    {
      "inputs": [
        {
          "internalType": "uint256",
          "name": "flight_id",
          "type": "uint256"
        },
        {
          "internalType": "string",
          "name": "code",
          "type": "string"
        },
        {
          "internalType": "string",
          "name": "flight_name",
          "type": "string"
        },
        {
          "internalType": "string",
          "name": "operator",
          "type": "string"
        },
        {
          "internalType": "string",
          "name": "departure_airport_code",
          "type": "string"
        },
        {
          "internalType": "string",
          "name": "arrival_airport_code",
          "type": "string"
        }
      ],
      "name": "createNewFlight",
      "outputs": [],
      "stateMutability": "nonpayable",
      "type": "function"
    },
    {
      "inputs": [
        {
          "internalType": "uint256",
          "name": "id",
          "type": "uint256"
        }
      ],
      "name": "getFlightDeparture",
      "outputs": [
        {
          "internalType": "string",
          "name": "",
          "type": "string"
        }
      ],
      "stateMutability": "view",
      "type": "function",
      "constant": true
    },
    {
      "inputs": [
        {
          "internalType": "uint256",
          "name": "citizen_id",
          "type": "uint256"
        },
        {
          "internalType": "uint256",
          "name": "flight_id",
          "type": "uint256"
        }
      ],
      "name": "checkIllegalTravel",
      "outputs": [],
      "stateMutability": "view",
      "type": "function",
      "constant": true
    },
    {
      "inputs": [
        {
          "internalType": "uint256",
          "name": "citizen_id",
          "type": "uint256"
        },
        {
          "internalType": "uint256",
          "name": "flight_id",
          "type": "uint256"
        }
      ],
      "name": "addPersonToFlight",
      "outputs": [],
      "stateMutability": "nonpayable",
      "type": "function"
    },
    {
      "inputs": [
        {
          "internalType": "uint256",
          "name": "id",
          "type": "uint256"
        }
      ],
      "name": "getFlight",
      "outputs": [
        {
          "components": [
            {
              "internalType": "uint256",
              "name": "id",
              "type": "uint256"
            },
            {
              "internalType": "string",
              "name": "code",
              "type": "string"
            },
            {
              "internalType": "string",
              "name": "name",
              "type": "string"
            },
            {
              "internalType": "string",
              "name": "operator",
              "type": "string"
            },
            {
              "internalType": "string",
              "name": "departure_airport_code",
              "type": "string"
            },
            {
              "internalType": "string",
              "name": "arrival_airport_code",
              "type": "string"
            }
          ],
          "internalType": "struct Immigration.Flight",
          "name": "",
          "type": "tuple"
        }
      ],
      "stateMutability": "view",
      "type": "function",
      "constant": true
    }
  ],
  "bytecode": "0x608060405234801561001057600080fd5b50612986806100206000396000f3fe608060405234801561001057600080fd5b50600436106100885760003560e01c80633a4396cb1161005b5780633a4396cb146101255780638914a8a0146101555780638c807fc214610185578063a37a11be146101a157610088565b806307e97bf81461008d57806316f8c2b3146100bd578063289c715b146100d957806338ff786814610109575b600080fd5b6100a760048036038101906100a29190611f61565b6101bd565b6040516100b49190612027565b60405180910390f35b6100d760048036038101906100d29190612049565b610518565b005b6100f360048036038101906100ee9190611f61565b610d42565b6040516101009190612027565b60405180910390f35b610123600480360381019061011e91906121be565b61109d565b005b61013f600480360381019061013a9190611f61565b6111db565b60405161014c91906123d5565b60405180910390f35b61016f600480360381019061016a9190611f61565b611544565b60405161017c919061249c565b60405180910390f35b61019f600480360381019061019a91906124be565b6118ad565b005b6101bb60048036038101906101b69190612049565b6119ea565b005b60606000600160008481526020019081526020016000206040518060c0016040529081600082015481526020016001820180546101f9906125d8565b80601f0160208091040260200160405190810160405280929190818152602001828054610225906125d8565b80156102725780601f1061024757610100808354040283529160200191610272565b820191906000526020600020905b81548152906001019060200180831161025557829003601f168201915b5050505050815260200160028201805461028b906125d8565b80601f01602080910402602001604051908101604052809291908181526020018280546102b7906125d8565b80156103045780601f106102d957610100808354040283529160200191610304565b820191906000526020600020905b8154815290600101906020018083116102e757829003601f168201915b5050505050815260200160038201805461031d906125d8565b80601f0160208091040260200160405190810160405280929190818152602001828054610349906125d8565b80156103965780601f1061036b57610100808354040283529160200191610396565b820191906000526020600020905b81548152906001019060200180831161037957829003601f168201915b505050505081526020016004820180546103af906125d8565b80601f01602080910402602001604051908101604052809291908181526020018280546103db906125d8565b80156104285780601f106103fd57610100808354040283529160200191610428565b820191906000526020600020905b81548152906001019060200180831161040b57829003601f168201915b50505050508152602001600582018054610441906125d8565b80601f016020809104026020016040519081016040528092919081815260200182805461046d906125d8565b80156104ba5780601f1061048f576101008083540402835291602001916104ba565b820191906000526020600020905b81548152906001019060200180831161049d57829003601f168201915b50505050508152505090508281600001511461050b576040517f08c379a000000000000000000000000000000000000000000000000000000000815260040161050290612655565b60405180910390fd5b8060800151915050919050565b6000600160008481526020019081526020016000206040518060c001604052908160008201548152602001600182018054610552906125d8565b80601f016020809104026020016040519081016040528092919081815260200182805461057e906125d8565b80156105cb5780601f106105a0576101008083540402835291602001916105cb565b820191906000526020600020905b8154815290600101906020018083116105ae57829003601f168201915b505050505081526020016002820180546105e4906125d8565b80601f0160208091040260200160405190810160405280929190818152602001828054610610906125d8565b801561065d5780601f106106325761010080835404028352916020019161065d565b820191906000526020600020905b81548152906001019060200180831161064057829003601f168201915b50505050508152602001600382018054610676906125d8565b80601f01602080910402602001604051908101604052809291908181526020018280546106a2906125d8565b80156106ef5780601f106106c4576101008083540402835291602001916106ef565b820191906000526020600020905b8154815290600101906020018083116106d257829003601f168201915b50505050508152602001600482018054610708906125d8565b80601f0160208091040260200160405190810160405280929190818152602001828054610734906125d8565b80156107815780601f1061075657610100808354040283529160200191610781565b820191906000526020600020905b81548152906001019060200180831161076457829003601f168201915b5050505050815260200160058201805461079a906125d8565b80601f01602080910402602001604051908101604052809291908181526020018280546107c6906125d8565b80156108135780601f106107e857610100808354040283529160200191610813565b820191906000526020600020905b8154815290600101906020018083116107f657829003601f168201915b505050505081525050905082816000015114610864576040517f08c379a000000000000000000000000000000000000000000000000000000000815260040161085b90612655565b60405180910390fd5b6000600260008481526020019081526020016000206040518060c00160405290816000820154815260200160018201805461089e906125d8565b80601f01602080910402602001604051908101604052809291908181526020018280546108ca906125d8565b80156109175780601f106108ec57610100808354040283529160200191610917565b820191906000526020600020905b8154815290600101906020018083116108fa57829003601f168201915b50505050508152602001600282018054610930906125d8565b80601f016020809104026020016040519081016040528092919081815260200182805461095c906125d8565b80156109a95780601f1061097e576101008083540402835291602001916109a9565b820191906000526020600020905b81548152906001019060200180831161098c57829003601f168201915b505050505081526020016003820180546109c2906125d8565b80601f01602080910402602001604051908101604052809291908181526020018280546109ee906125d8565b8015610a3b5780601f10610a1057610100808354040283529160200191610a3b565b820191906000526020600020905b815481529060010190602001808311610a1e57829003601f168201915b50505050508152602001600482018054610a54906125d8565b80601f0160208091040260200160405190810160405280929190818152602001828054610a80906125d8565b8015610acd5780601f10610aa257610100808354040283529160200191610acd565b820191906000526020600020905b815481529060010190602001808311610ab057829003601f168201915b50505050508152602001600582018054610ae6906125d8565b80601f0160208091040260200160405190810160405280929190818152602001828054610b12906125d8565b8015610b5f5780601f10610b3457610100808354040283529160200191610b5f565b820191906000526020600020905b815481529060010190602001808311610b4257829003601f168201915b505050505081525050905082816000015114610bb0576040517f08c379a0000000000000000000000000000000000000000000000000000000008152600401610ba7906126c1565b60405180910390fd5b610bba84846119ea565b60036000848152602001908152602001600020829080600181540180825580915050600190039060005260206000209060060201600090919091909150600082015181600001556020820151816001019080519060200190610c1d929190611e08565b506040820151816002019080519060200190610c3a929190611e08565b506060820151816003019080519060200190610c57929190611e08565b506080820151816004019080519060200190610c74929190611e08565b5060a0820151816005019080519060200190610c91929190611e08565b505050610d3c84600260008681526020019081526020016000206005018054610cb9906125d8565b80601f0160208091040260200160405190810160405280929190818152602001828054610ce5906125d8565b8015610d325780601f10610d0757610100808354040283529160200191610d32565b820191906000526020600020905b815481529060010190602001808311610d1557829003601f168201915b5050505050611a8c565b50505050565b60606000600260008481526020019081526020016000206040518060c001604052908160008201548152602001600182018054610d7e906125d8565b80601f0160208091040260200160405190810160405280929190818152602001828054610daa906125d8565b8015610df75780601f10610dcc57610100808354040283529160200191610df7565b820191906000526020600020905b815481529060010190602001808311610dda57829003601f168201915b50505050508152602001600282018054610e10906125d8565b80601f0160208091040260200160405190810160405280929190818152602001828054610e3c906125d8565b8015610e895780601f10610e5e57610100808354040283529160200191610e89565b820191906000526020600020905b815481529060010190602001808311610e6c57829003601f168201915b50505050508152602001600382018054610ea2906125d8565b80601f0160208091040260200160405190810160405280929190818152602001828054610ece906125d8565b8015610f1b5780601f10610ef057610100808354040283529160200191610f1b565b820191906000526020600020905b815481529060010190602001808311610efe57829003601f168201915b50505050508152602001600482018054610f34906125d8565b80601f0160208091040260200160405190810160405280929190818152602001828054610f60906125d8565b8015610fad5780601f10610f8257610100808354040283529160200191610fad565b820191906000526020600020905b815481529060010190602001808311610f9057829003601f168201915b50505050508152602001600582018054610fc6906125d8565b80601f0160208091040260200160405190810160405280929190818152602001828054610ff2906125d8565b801561103f5780601f106110145761010080835404028352916020019161103f565b820191906000526020600020905b81548152906001019060200180831161102257829003601f168201915b505050505081525050905082816000015114611090576040517f08c379a0000000000000000000000000000000000000000000000000000000008152600401611087906126c1565b60405180910390fd5b8060800151915050919050565b856002600088815260200190815260200160002060000154036110f5576040517f08c379a00000000000000000000000000000000000000000000000000000000081526004016110ec9061272d565b60405180910390fd5b6040518060c00160405280878152602001868152602001858152602001848152602001838152602001828152506002600088815260200190815260200160002060008201518160000155602082015181600101908051906020019061115b929190611e08565b506040820151816002019080519060200190611178929190611e08565b506060820151816003019080519060200190611195929190611e08565b5060808201518160040190805190602001906111b2929190611e08565b5060a08201518160050190805190602001906111cf929190611e08565b50905050505050505050565b6111e3611e8e565b8160026000848152602001908152602001600020600001541461123b576040517f08c379a000000000000000000000000000000000000000000000000000000000815260040161123290612799565b60405180910390fd5b600260008381526020019081526020016000206040518060c001604052908160008201548152602001600182018054611273906125d8565b80601f016020809104026020016040519081016040528092919081815260200182805461129f906125d8565b80156112ec5780601f106112c1576101008083540402835291602001916112ec565b820191906000526020600020905b8154815290600101906020018083116112cf57829003601f168201915b50505050508152602001600282018054611305906125d8565b80601f0160208091040260200160405190810160405280929190818152602001828054611331906125d8565b801561137e5780601f106113535761010080835404028352916020019161137e565b820191906000526020600020905b81548152906001019060200180831161136157829003601f168201915b50505050508152602001600382018054611397906125d8565b80601f01602080910402602001604051908101604052809291908181526020018280546113c3906125d8565b80156114105780601f106113e557610100808354040283529160200191611410565b820191906000526020600020905b8154815290600101906020018083116113f357829003601f168201915b50505050508152602001600482018054611429906125d8565b80601f0160208091040260200160405190810160405280929190818152602001828054611455906125d8565b80156114a25780601f10611477576101008083540402835291602001916114a2565b820191906000526020600020905b81548152906001019060200180831161148557829003601f168201915b505050505081526020016005820180546114bb906125d8565b80601f01602080910402602001604051908101604052809291908181526020018280546114e7906125d8565b80156115345780601f1061150957610100808354040283529160200191611534565b820191906000526020600020905b81548152906001019060200180831161151757829003601f168201915b5050505050815250509050919050565b61154c611ec4565b816001600084815260200190815260200160002060000154146115a4576040517f08c379a000000000000000000000000000000000000000000000000000000000815260040161159b90612805565b60405180910390fd5b600160008381526020019081526020016000206040518060c0016040529081600082015481526020016001820180546115dc906125d8565b80601f0160208091040260200160405190810160405280929190818152602001828054611608906125d8565b80156116555780601f1061162a57610100808354040283529160200191611655565b820191906000526020600020905b81548152906001019060200180831161163857829003601f168201915b5050505050815260200160028201805461166e906125d8565b80601f016020809104026020016040519081016040528092919081815260200182805461169a906125d8565b80156116e75780601f106116bc576101008083540402835291602001916116e7565b820191906000526020600020905b8154815290600101906020018083116116ca57829003601f168201915b50505050508152602001600382018054611700906125d8565b80601f016020809104026020016040519081016040528092919081815260200182805461172c906125d8565b80156117795780601f1061174e57610100808354040283529160200191611779565b820191906000526020600020905b81548152906001019060200180831161175c57829003601f168201915b50505050508152602001600482018054611792906125d8565b80601f01602080910402602001604051908101604052809291908181526020018280546117be906125d8565b801561180b5780601f106117e05761010080835404028352916020019161180b565b820191906000526020600020905b8154815290600101906020018083116117ee57829003601f168201915b50505050508152602001600582018054611824906125d8565b80601f0160208091040260200160405190810160405280929190818152602001828054611850906125d8565b801561189d5780601f106118725761010080835404028352916020019161189d565b820191906000526020600020905b81548152906001019060200180831161188057829003601f168201915b5050505050815250509050919050565b84600160008781526020019081526020016000206000015403611905576040517f08c379a00000000000000000000000000000000000000000000000000000000081526004016118fc90612871565b60405180910390fd5b6040518060c00160405280868152602001858152602001848152602001838152602001828152602001828152506001600087815260200190815260200160002060008201518160000155602082015181600101908051906020019061196b929190611e08565b506040820151816002019080519060200190611988929190611e08565b5060608201518160030190805190602001906119a5929190611e08565b5060808201518160040190805190602001906119c2929190611e08565b5060a08201518160050190805190602001906119df929190611e08565b509050505050505050565b6119f3826101bd565b604051602001611a0391906128cd565b60405160208183030381529060405280519060200120611a2282610d42565b604051602001611a3291906128cd565b6040516020818303038152906040528051906020012014611a88576040517f08c379a0000000000000000000000000000000000000000000000000000000008152600401611a7f90612930565b60405180910390fd5b5050565b6000600160008481526020019081526020016000206040518060c001604052908160008201548152602001600182018054611ac6906125d8565b80601f0160208091040260200160405190810160405280929190818152602001828054611af2906125d8565b8015611b3f5780601f10611b1457610100808354040283529160200191611b3f565b820191906000526020600020905b815481529060010190602001808311611b2257829003601f168201915b50505050508152602001600282018054611b58906125d8565b80601f0160208091040260200160405190810160405280929190818152602001828054611b84906125d8565b8015611bd15780601f10611ba657610100808354040283529160200191611bd1565b820191906000526020600020905b815481529060010190602001808311611bb457829003601f168201915b50505050508152602001600382018054611bea906125d8565b80601f0160208091040260200160405190810160405280929190818152602001828054611c16906125d8565b8015611c635780601f10611c3857610100808354040283529160200191611c63565b820191906000526020600020905b815481529060010190602001808311611c4657829003601f168201915b50505050508152602001600482018054611c7c906125d8565b80601f0160208091040260200160405190810160405280929190818152602001828054611ca8906125d8565b8015611cf55780601f10611cca57610100808354040283529160200191611cf5565b820191906000526020600020905b815481529060010190602001808311611cd857829003601f168201915b50505050508152602001600582018054611d0e906125d8565b80601f0160208091040260200160405190810160405280929190818152602001828054611d3a906125d8565b8015611d875780601f10611d5c57610100808354040283529160200191611d87565b820191906000526020600020905b815481529060010190602001808311611d6a57829003601f168201915b505050505081525050905082816000015114611dd8576040517f08c379a0000000000000000000000000000000000000000000000000000000008152600401611dcf90612655565b60405180910390fd5b81600160008581526020019081526020016000206004019080519060200190611e02929190611e08565b50505050565b828054611e14906125d8565b90600052602060002090601f016020900481019282611e365760008555611e7d565b82601f10611e4f57805160ff1916838001178555611e7d565b82800160010185558215611e7d579182015b82811115611e7c578251825591602001919060010190611e61565b5b509050611e8a9190611efa565b5090565b6040518060c001604052806000815260200160608152602001606081526020016060815260200160608152602001606081525090565b6040518060c001604052806000815260200160608152602001606081526020016060815260200160608152602001606081525090565b5b80821115611f13576000816000905550600101611efb565b5090565b6000604051905090565b600080fd5b600080fd5b6000819050919050565b611f3e81611f2b565b8114611f4957600080fd5b50565b600081359050611f5b81611f35565b92915050565b600060208284031215611f7757611f76611f21565b5b6000611f8584828501611f4c565b91505092915050565b600081519050919050565b600082825260208201905092915050565b60005b83811015611fc8578082015181840152602081019050611fad565b83811115611fd7576000848401525b50505050565b6000601f19601f8301169050919050565b6000611ff982611f8e565b6120038185611f99565b9350612013818560208601611faa565b61201c81611fdd565b840191505092915050565b600060208201905081810360008301526120418184611fee565b905092915050565b600080604083850312156120605761205f611f21565b5b600061206e85828601611f4c565b925050602061207f85828601611f4c565b9150509250929050565b600080fd5b600080fd5b7f4e487b7100000000000000000000000000000000000000000000000000000000600052604160045260246000fd5b6120cb82611fdd565b810181811067ffffffffffffffff821117156120ea576120e9612093565b5b80604052505050565b60006120fd611f17565b905061210982826120c2565b919050565b600067ffffffffffffffff82111561212957612128612093565b5b61213282611fdd565b9050602081019050919050565b82818337600083830152505050565b600061216161215c8461210e565b6120f3565b90508281526020810184848401111561217d5761217c61208e565b5b61218884828561213f565b509392505050565b600082601f8301126121a5576121a4612089565b5b81356121b584826020860161214e565b91505092915050565b60008060008060008060c087890312156121db576121da611f21565b5b60006121e989828a01611f4c565b965050602087013567ffffffffffffffff81111561220a57612209611f26565b5b61221689828a01612190565b955050604087013567ffffffffffffffff81111561223757612236611f26565b5b61224389828a01612190565b945050606087013567ffffffffffffffff81111561226457612263611f26565b5b61227089828a01612190565b935050608087013567ffffffffffffffff81111561229157612290611f26565b5b61229d89828a01612190565b92505060a087013567ffffffffffffffff8111156122be576122bd611f26565b5b6122ca89828a01612190565b9150509295509295509295565b6122e081611f2b565b82525050565b600082825260208201905092915050565b600061230282611f8e565b61230c81856122e6565b935061231c818560208601611faa565b61232581611fdd565b840191505092915050565b600060c08301600083015161234860008601826122d7565b506020830151848203602086015261236082826122f7565b9150506040830151848203604086015261237a82826122f7565b9150506060830151848203606086015261239482826122f7565b915050608083015184820360808601526123ae82826122f7565b91505060a083015184820360a08601526123c882826122f7565b9150508091505092915050565b600060208201905081810360008301526123ef8184612330565b905092915050565b600060c08301600083015161240f60008601826122d7565b506020830151848203602086015261242782826122f7565b9150506040830151848203604086015261244182826122f7565b9150506060830151848203606086015261245b82826122f7565b9150506080830151848203608086015261247582826122f7565b91505060a083015184820360a086015261248f82826122f7565b9150508091505092915050565b600060208201905081810360008301526124b681846123f7565b905092915050565b600080600080600060a086880312156124da576124d9611f21565b5b60006124e888828901611f4c565b955050602086013567ffffffffffffffff81111561250957612508611f26565b5b61251588828901612190565b945050604086013567ffffffffffffffff81111561253657612535611f26565b5b61254288828901612190565b935050606086013567ffffffffffffffff81111561256357612562611f26565b5b61256f88828901612190565b925050608086013567ffffffffffffffff8111156125905761258f611f26565b5b61259c88828901612190565b9150509295509295909350565b7f4e487b7100000000000000000000000000000000000000000000000000000000600052602260045260246000fd5b600060028204905060018216806125f057607f821691505b602082108103612603576126026125a9565b5b50919050565b7f436974697a656e20646f6573206e6f7420657869737473000000000000000000600082015250565b600061263f601783611f99565b915061264a82612609565b602082019050919050565b6000602082019050818103600083015261266e81612632565b9050919050565b7f466c6967687420646f6573206e6f742065786973747300000000000000000000600082015250565b60006126ab601683611f99565b91506126b682612675565b602082019050919050565b600060208201905081810360008301526126da8161269e565b9050919050565b7f466c6967687420616c7265616479206578697374730000000000000000000000600082015250565b6000612717601583611f99565b9150612722826126e1565b602082019050919050565b600060208201905081810360008301526127468161270a565b9050919050565b7f466c6967687420646f6573206e6f742065786973740000000000000000000000600082015250565b6000612783601583611f99565b915061278e8261274d565b602082019050919050565b600060208201905081810360008301526127b281612776565b9050919050565b7f436974697a656e20646f6573206e6f7420657869737400000000000000000000600082015250565b60006127ef601683611f99565b91506127fa826127b9565b602082019050919050565b6000602082019050818103600083015261281e816127e2565b9050919050565b7f436974697a656e20616c72656164792065786973747300000000000000000000600082015250565b600061285b601683611f99565b915061286682612825565b602082019050919050565b6000602082019050818103600083015261288a8161284e565b9050919050565b600081905092915050565b60006128a782611f8e565b6128b18185612891565b93506128c1818560208601611faa565b80840191505092915050565b60006128d9828461289c565b915081905092915050565b7f496c6c6567616c2054726176656c000000000000000000000000000000000000600082015250565b600061291a600e83611f99565b9150612925826128e4565b602082019050919050565b600060208201905081810360008301526129498161290d565b905091905056fea2646970667358221220d490e3bb756b75d966ea8547d8089a35c5638954df596c827b94e90b9910d94164736f6c634300080d0033",
  "immutableReferences": {},
  "source": "// SPDX-License-Identifier: GPL-3.0\n\npragma solidity >=0.7.0 <0.9.0;\n\ncontract Immigration {\n\n    // security\n    address creator;\n    modifier onlyCreator() {\n        require(msg.sender == creator);\n        _;                             \n    } \n\n    //data structure & variables\n    struct Citizen{\n        uint id;\n        string passport_number;\n        string name;\n        string dob;\n        string last_known_location;\n        string nationality;\n    }\n    struct Flight {\n        uint id;\n        string code; \n        string name;\n        string operator;\n        string departure_airport_code;\n        string arrival_airport_code;\n    }\n    mapping(uint => Citizen) citizenHashMap;\n    mapping(uint => Flight) planeHashMap;\n    mapping(uint => Citizen[]) passengersInFlight;\n    \n    // citizen functions\n    function createNewCitizen(uint id, string memory pn, string memory nam, string memory dateOfBirth, string memory nation) public{\n        require(citizenHashMap[id].id!=id, \"Citizen already exists\");\n        citizenHashMap[id] = Citizen(id, pn, nam, dateOfBirth, nation, nation);\n    }\n\n    function changeLastKnownLocation(uint id, string memory lkl) private {\n        Citizen memory p = citizenHashMap[id];\n        require(p.id==id, \"Citizen does not exists\");\n        citizenHashMap[id].last_known_location = lkl;\n    }\n\n    function getLastKnownLocation(uint id) public view returns (string memory) {\n        Citizen memory p = citizenHashMap[id];\n        require(p.id == id, \"Citizen does not exists\");\n        return p.last_known_location;\n    }\n\n    function getCitizen(uint id) public view returns (Citizen memory){\n        require(citizenHashMap[id].id==id, \"Citizen does not exist\");\n        return citizenHashMap[id];\n    }\n\n    // flight functions\n    function createNewFlight(uint flight_id, string memory code, string memory flight_name, string memory operator, string memory departure_airport_code, string memory arrival_airport_code) public{\n        require(planeHashMap[flight_id].id!=flight_id, \"Flight already exists\");\n        planeHashMap[flight_id] = Flight(flight_id, code, flight_name, operator, departure_airport_code, arrival_airport_code);\n    }\n\n    function getFlightDeparture(uint id) public view returns (string memory) {\n        Flight memory p = planeHashMap[id];\n        require(p.id==id, \"Flight does not exists\");\n        return p.departure_airport_code;\n    }\n\n    function checkIllegalTravel(uint citizen_id, uint flight_id) public view{\n        require(\n                keccak256(abi.encodePacked(getFlightDeparture(flight_id)))\n                == \n                keccak256(abi.encodePacked(getLastKnownLocation(citizen_id))),\n            \"Illegal Travel\"\n        );\n    }\n\n    function addPersonToFlight(uint citizen_id, uint flight_id) public{\n        Citizen memory c = citizenHashMap[citizen_id];\n        require(c.id==citizen_id, \"Citizen does not exists\");\n        Flight memory f = planeHashMap[flight_id];\n        require(f.id==flight_id, \"Flight does not exists\");\n\n        checkIllegalTravel(citizen_id, flight_id);\n\n        passengersInFlight[flight_id].push(c);\n\n        changeLastKnownLocation(citizen_id, planeHashMap[flight_id].arrival_airport_code);\n    }\n\n    function getFlight(uint id) public view returns (Flight memory){\n        require(planeHashMap[id].id==id, \"Flight does not exist\");\n        return planeHashMap[id];\n    }\n}",
  "sourcePath": "/Users/harshil/Projects/travel-tracking-dapp/contracts/Immigration.sol",
  "compiler": {
    "name": "solc",
    "version": "0.8.13+commit.abaa5c0e.Emscripten.clang"
  },
  "schemaVersion": "3.4.6",
  "updatedAt": "2022-04-05T05:24:05.226Z",
  "networkType": "ethereum",
  "devdoc": {
    "kind": "dev",
    "methods": {},
    "version": 1
  },
  "userdoc": {
    "kind": "user",
    "methods": {},
    "version": 1
  }
}