{
  "contractName": "Immigration",
  "abi": [
    {
      "inputs": [
        {
          "internalType": "string",
          "name": "country_name",
          "type": "string"
        },
        {
          "internalType": "string",
          "name": "at_risk_country_name",
          "type": "string"
        }
      ],
      "name": "at_risk_country",
      "outputs": [],
      "stateMutability": "nonpayable",
      "type": "function"
    },
    {
      "inputs": [
        {
          "internalType": "string",
          "name": "country_name",
          "type": "string"
        },
        {
          "internalType": "string",
          "name": "blacklist_country_name",
          "type": "string"
        }
      ],
      "name": "blacklist_country",
      "outputs": [],
      "stateMutability": "nonpayable",
      "type": "function"
    },
    {
      "inputs": [
        {
          "internalType": "uint256",
          "name": "id",
          "type": "uint256"
        }
      ],
      "name": "getCitizen",
      "outputs": [
        {
          "components": [
            {
              "internalType": "uint256",
              "name": "id",
              "type": "uint256"
            },
            {
              "internalType": "string",
              "name": "passport_number",
              "type": "string"
            },
            {
              "internalType": "string",
              "name": "name",
              "type": "string"
            },
            {
              "internalType": "string",
              "name": "dob",
              "type": "string"
            },
            {
              "internalType": "string",
              "name": "nationality",
              "type": "string"
            },
            {
              "internalType": "string",
              "name": "last_known_location",
              "type": "string"
            },
            {
              "internalType": "string",
              "name": "departure",
              "type": "string"
            },
            {
              "internalType": "string[]",
              "name": "connecting_countries",
              "type": "string[]"
            },
            {
              "internalType": "string",
              "name": "arrival",
              "type": "string"
            },
            {
              "components": [
                {
                  "internalType": "string",
                  "name": "country",
                  "type": "string"
                },
                {
                  "internalType": "uint256",
                  "name": "date",
                  "type": "uint256"
                },
                {
                  "internalType": "string",
                  "name": "reason",
                  "type": "string"
                }
              ],
              "internalType": "struct Citizen.TravelHistory[]",
              "name": "travel_history",
              "type": "tuple[]"
            }
          ],
          "internalType": "struct Citizen.citizen",
          "name": "",
          "type": "tuple"
        }
      ],
      "stateMutability": "view",
      "type": "function"
    },
    {
      "inputs": [
        {
          "internalType": "uint256",
          "name": "id",
          "type": "uint256"
        }
      ],
      "name": "getCitizenArrival",
      "outputs": [
        {
          "internalType": "string",
          "name": "",
          "type": "string"
        }
      ],
      "stateMutability": "view",
      "type": "function"
    },
    {
      "inputs": [
        {
          "internalType": "uint256",
          "name": "id",
          "type": "uint256"
        }
      ],
      "name": "getCitizenConnectingCountries",
      "outputs": [
        {
          "internalType": "string[]",
          "name": "",
          "type": "string[]"
        }
      ],
      "stateMutability": "view",
      "type": "function"
    },
    {
      "inputs": [
        {
          "internalType": "uint256",
          "name": "id",
          "type": "uint256"
        }
      ],
      "name": "getCitizenDeparture",
      "outputs": [
        {
          "internalType": "string",
          "name": "",
          "type": "string"
        }
      ],
      "stateMutability": "view",
      "type": "function"
    },
    {
      "inputs": [
        {
          "internalType": "uint256",
          "name": "id",
          "type": "uint256"
        }
      ],
      "name": "getFlight",
      "outputs": [
        {
          "components": [
            {
              "internalType": "uint256",
              "name": "id",
              "type": "uint256"
            },
            {
              "internalType": "string",
              "name": "code",
              "type": "string"
            },
            {
              "internalType": "string",
              "name": "name",
              "type": "string"
            },
            {
              "internalType": "string",
              "name": "operator",
              "type": "string"
            },
            {
              "internalType": "string",
              "name": "departure_airport_code",
              "type": "string"
            },
            {
              "internalType": "string",
              "name": "arrival_airport_code",
              "type": "string"
            }
          ],
          "internalType": "struct Flight.flight",
          "name": "",
          "type": "tuple"
        }
      ],
      "stateMutability": "view",
      "type": "function"
    },
    {
      "inputs": [
        {
          "internalType": "uint256",
          "name": "id",
          "type": "uint256"
        }
      ],
      "name": "getFlightArrival",
      "outputs": [
        {
          "internalType": "string",
          "name": "",
          "type": "string"
        }
      ],
      "stateMutability": "view",
      "type": "function"
    },
    {
      "inputs": [
        {
          "internalType": "uint256",
          "name": "id",
          "type": "uint256"
        }
      ],
      "name": "getFlightDeparture",
      "outputs": [
        {
          "internalType": "string",
          "name": "",
          "type": "string"
        }
      ],
      "stateMutability": "view",
      "type": "function"
    },
    {
      "inputs": [
        {
          "internalType": "uint256",
          "name": "id",
          "type": "uint256"
        }
      ],
      "name": "getLastKnownLocation",
      "outputs": [
        {
          "internalType": "string",
          "name": "",
          "type": "string"
        }
      ],
      "stateMutability": "view",
      "type": "function"
    },
    {
      "inputs": [
        {
          "internalType": "uint256",
          "name": "id",
          "type": "uint256"
        },
        {
          "internalType": "string",
          "name": "pn",
          "type": "string"
        },
        {
          "internalType": "string",
          "name": "nam",
          "type": "string"
        },
        {
          "internalType": "string",
          "name": "dateOfBirth",
          "type": "string"
        },
        {
          "internalType": "string",
          "name": "nation",
          "type": "string"
        }
      ],
      "name": "setCitizen",
      "outputs": [],
      "stateMutability": "nonpayable",
      "type": "function"
    },
    {
      "inputs": [
        {
          "internalType": "uint256",
          "name": "id",
          "type": "uint256"
        },
        {
          "internalType": "string",
          "name": "pn",
          "type": "string"
        },
        {
          "internalType": "string",
          "name": "nam",
          "type": "string"
        },
        {
          "internalType": "string",
          "name": "dateOfBirth",
          "type": "string"
        },
        {
          "internalType": "string",
          "name": "nation",
          "type": "string"
        }
      ],
      "name": "createCitizen",
      "outputs": [],
      "stateMutability": "nonpayable",
      "type": "function"
    },
    {
      "inputs": [
        {
          "internalType": "uint256",
          "name": "id",
          "type": "uint256"
        },
        {
          "internalType": "string",
          "name": "code",
          "type": "string"
        },
        {
          "internalType": "string",
          "name": "name",
          "type": "string"
        },
        {
          "internalType": "string",
          "name": "op",
          "type": "string"
        },
        {
          "internalType": "string",
          "name": "dep_con",
          "type": "string"
        },
        {
          "internalType": "string",
          "name": "arr_con",
          "type": "string"
        }
      ],
      "name": "createNewFlight",
      "outputs": [],
      "stateMutability": "nonpayable",
      "type": "function"
    },
    {
      "inputs": [
        {
          "internalType": "uint256",
          "name": "citizen_id",
          "type": "uint256"
        },
        {
          "internalType": "uint256",
          "name": "flight_id",
          "type": "uint256"
        }
      ],
      "name": "checkIllegalTravel",
      "outputs": [],
      "stateMutability": "view",
      "type": "function"
    },
    {
      "inputs": [
        {
          "internalType": "uint256",
          "name": "citizen_id",
          "type": "uint256"
        },
        {
          "internalType": "uint256",
          "name": "flight_id",
          "type": "uint256"
        }
      ],
      "name": "addPersonToFlight",
      "outputs": [],
      "stateMutability": "nonpayable",
      "type": "function"
    },
    {
      "inputs": [
        {
          "internalType": "uint256",
          "name": "citizen_id",
          "type": "uint256"
        },
        {
          "internalType": "uint256",
          "name": "flight_id",
          "type": "uint256"
        }
      ],
      "name": "allowToEnterCountry",
      "outputs": [],
      "stateMutability": "nonpayable",
      "type": "function"
    }
  ],
  "bytecode": "0x608060405234801561001057600080fd5b50612f57806100206000396000f3fe608060405234801561001057600080fd5b50600436106101005760003560e01c80635d5a098311610097578063a4e27f1a11610066578063a4e27f1a146102b9578063bb57f9df146102e9578063f4036b3f14610319578063ff89be2f1461033557610100565b80635d5a098314610221578063676d94581461023d5780638914a8a01461026d578063a37a11be1461029d57610100565b806338ff7868116100d357806338ff78681461019d57806339196c0a146101b95780633a4396cb146101d557806352daf2521461020557610100565b806307e97bf81461010557806316f8c2b314610135578063237a60f214610151578063289c715b1461016d575b600080fd5b61011f600480360381019061011a919061211f565b610365565b60405161012c91906121e5565b60405180910390f35b61014f600480360381019061014a9190612207565b61037b565b005b61016b60048036038101906101669190612207565b6103ea565b005b6101876004803603810190610182919061211f565b6104bd565b60405161019491906121e5565b60405180910390f35b6101b760048036038101906101b2919061237c565b610818565b005b6101d360048036038101906101ce9190612495565b61082e565b005b6101ef60048036038101906101ea919061211f565b61093b565b6040516101fc919061260b565b60405180910390f35b61021f600480360381019061021a9190612495565b610ca4565b005b61023b6004803603810190610236919061262d565b610db1565b005b6102576004803603810190610252919061211f565b611083565b60405161026491906121e5565b60405180910390f35b6102876004803603810190610282919061211f565b611099565b6040516102949190612a05565b60405180910390f35b6102b760048036038101906102b29190612207565b61178b565b005b6102d360048036038101906102ce919061211f565b61182d565b6040516102e09190612aad565b60405180910390f35b61030360048036038101906102fe919061211f565b611843565b60405161031091906121e5565b60405180910390f35b610333600480360381019061032e919061262d565b61185a565b005b61034f600480360381019061034a919061211f565b61186e565b60405161035c91906121e5565b60405180910390f35b606061037082611099565b60a001519050919050565b600061038683611099565b9050610392838361178b565b60036000838152602001908152602001600020600181600181540180825580915050039060005260206000209050506103d3836103ce846104bd565b611bc9565b6103e5836103e08461186e565b611d22565b505050565b60006103f58261093b565b905061040083611843565b6040516020016104109190612b0b565b604051602081830303815290604052805190602001208160a0015160405160200161043b9190612b0b565b6040516020818303038152906040528051906020012014610491576040517f08c379a000000000000000000000000000000000000000000000000000000000815260040161048890612b6e565b60405180910390fd5b61049f838260a00151611bc9565b6104b88360405180602001604052806000815250611d22565b505050565b60606000600160008481526020019081526020016000206040518060c0016040529081600082015481526020016001820180546104f990612bbd565b80601f016020809104026020016040519081016040528092919081815260200182805461052590612bbd565b80156105725780601f1061054757610100808354040283529160200191610572565b820191906000526020600020905b81548152906001019060200180831161055557829003601f168201915b5050505050815260200160028201805461058b90612bbd565b80601f01602080910402602001604051908101604052809291908181526020018280546105b790612bbd565b80156106045780601f106105d957610100808354040283529160200191610604565b820191906000526020600020905b8154815290600101906020018083116105e757829003601f168201915b5050505050815260200160038201805461061d90612bbd565b80601f016020809104026020016040519081016040528092919081815260200182805461064990612bbd565b80156106965780601f1061066b57610100808354040283529160200191610696565b820191906000526020600020905b81548152906001019060200180831161067957829003601f168201915b505050505081526020016004820180546106af90612bbd565b80601f01602080910402602001604051908101604052809291908181526020018280546106db90612bbd565b80156107285780601f106106fd57610100808354040283529160200191610728565b820191906000526020600020905b81548152906001019060200180831161070b57829003601f168201915b5050505050815260200160058201805461074190612bbd565b80601f016020809104026020016040519081016040528092919081815260200182805461076d90612bbd565b80156107ba5780601f1061078f576101008083540402835291602001916107ba565b820191906000526020600020905b81548152906001019060200180831161079d57829003601f168201915b50505050508152505090508281600001511461080b576040517f08c379a000000000000000000000000000000000000000000000000000000000815260040161080290612c3a565b60405180910390fd5b8060800151915050919050565b610826868686868686611da7565b505050505050565b8160405160200161083f9190612b0b565b604051602081830303815290604052805190602001206002836040516108659190612b0b565b90815260200160405180910390206001016040516020016108869190612cee565b60405160208183030381529060405280519060200120146108dc576040517f08c379a00000000000000000000000000000000000000000000000000000000081526004016108d390612d51565b60405180910390fd5b6002826040516108ec9190612b0b565b908152602001604051809103902060030181908060018154018082558091505060019003906000526020600020016000909190919091509080519060200190610936929190611ee5565b505050565b610943611f6b565b8160016000848152602001908152602001600020600001541461099b576040517f08c379a000000000000000000000000000000000000000000000000000000000815260040161099290612dbd565b60405180910390fd5b600160008381526020019081526020016000206040518060c0016040529081600082015481526020016001820180546109d390612bbd565b80601f01602080910402602001604051908101604052809291908181526020018280546109ff90612bbd565b8015610a4c5780601f10610a2157610100808354040283529160200191610a4c565b820191906000526020600020905b815481529060010190602001808311610a2f57829003601f168201915b50505050508152602001600282018054610a6590612bbd565b80601f0160208091040260200160405190810160405280929190818152602001828054610a9190612bbd565b8015610ade5780601f10610ab357610100808354040283529160200191610ade565b820191906000526020600020905b815481529060010190602001808311610ac157829003601f168201915b50505050508152602001600382018054610af790612bbd565b80601f0160208091040260200160405190810160405280929190818152602001828054610b2390612bbd565b8015610b705780601f10610b4557610100808354040283529160200191610b70565b820191906000526020600020905b815481529060010190602001808311610b5357829003601f168201915b50505050508152602001600482018054610b8990612bbd565b80601f0160208091040260200160405190810160405280929190818152602001828054610bb590612bbd565b8015610c025780601f10610bd757610100808354040283529160200191610c02565b820191906000526020600020905b815481529060010190602001808311610be557829003601f168201915b50505050508152602001600582018054610c1b90612bbd565b80601f0160208091040260200160405190810160405280929190818152602001828054610c4790612bbd565b8015610c945780601f10610c6957610100808354040283529160200191610c94565b820191906000526020600020905b815481529060010190602001808311610c7757829003601f168201915b5050505050815250509050919050565b81604051602001610cb59190612b0b565b60405160208183030381529060405280519060200120600283604051610cdb9190612b0b565b9081526020016040518091039020600101604051602001610cfc9190612cee565b6040516020818303038152906040528051906020012014610d52576040517f08c379a0000000000000000000000000000000000000000000000000000000008152600401610d4990612d51565b60405180910390fd5b600282604051610d629190612b0b565b908152602001604051809103902060020181908060018154018082558091505060019003906000526020600020016000909190919091509080519060200190610dac929190611ee5565b505050565b846000808781526020019081526020016000206000015403610e08576040517f08c379a0000000000000000000000000000000000000000000000000000000008152600401610dff90612e29565b60405180910390fd5b8460008087815260200190815260200160002060000181905550836000808781526020019081526020016000206001019080519060200190610e4b929190611ee5565b50826000808781526020019081526020016000206002019080519060200190610e75929190611ee5565b50816000808781526020019081526020016000206003019080519060200190610e9f929190611ee5565b50806000808781526020019081526020016000206004019080519060200190610ec9929190611ee5565b50806000808781526020019081526020016000206005019080519060200190610ef3929190611ee5565b50604051806020016040528060008152506000808781526020019081526020016000206006019080519060200190610f2c929190611ee5565b50604051806020016040528060405180602001604052806000815250815250600080878152602001908152602001600020600701906001610f6e929190611fa1565b50604051806020016040528060008152506000808781526020019081526020016000206008019080519060200190610fa7929190611ee5565b5060008086815260200190815260200160002060090160405180606001604052808381526020014281526020016040518060400160405280600b81526020017f4e6174696f6e616c69747900000000000000000000000000000000000000000081525081525090806001815401808255809150506001900390600052602060002090600302016000909190919091506000820151816000019080519060200190611052929190611ee5565b50602082015181600101556040820151816002019080519060200190611079929190611ee5565b5050505050505050565b606061108e82611099565b60c001519050919050565b6110a1612001565b8160008084815260200190815260200160002060000154146110f8576040517f08c379a00000000000000000000000000000000000000000000000000000000081526004016110ef90612e95565b60405180910390fd5b600080838152602001908152602001600020604051806101400160405290816000820154815260200160018201805461113090612bbd565b80601f016020809104026020016040519081016040528092919081815260200182805461115c90612bbd565b80156111a95780601f1061117e576101008083540402835291602001916111a9565b820191906000526020600020905b81548152906001019060200180831161118c57829003601f168201915b505050505081526020016002820180546111c290612bbd565b80601f01602080910402602001604051908101604052809291908181526020018280546111ee90612bbd565b801561123b5780601f106112105761010080835404028352916020019161123b565b820191906000526020600020905b81548152906001019060200180831161121e57829003601f168201915b5050505050815260200160038201805461125490612bbd565b80601f016020809104026020016040519081016040528092919081815260200182805461128090612bbd565b80156112cd5780601f106112a2576101008083540402835291602001916112cd565b820191906000526020600020905b8154815290600101906020018083116112b057829003601f168201915b505050505081526020016004820180546112e690612bbd565b80601f016020809104026020016040519081016040528092919081815260200182805461131290612bbd565b801561135f5780601f106113345761010080835404028352916020019161135f565b820191906000526020600020905b81548152906001019060200180831161134257829003601f168201915b5050505050815260200160058201805461137890612bbd565b80601f01602080910402602001604051908101604052809291908181526020018280546113a490612bbd565b80156113f15780601f106113c6576101008083540402835291602001916113f1565b820191906000526020600020905b8154815290600101906020018083116113d457829003601f168201915b5050505050815260200160068201805461140a90612bbd565b80601f016020809104026020016040519081016040528092919081815260200182805461143690612bbd565b80156114835780601f1061145857610100808354040283529160200191611483565b820191906000526020600020905b81548152906001019060200180831161146657829003601f168201915b5050505050815260200160078201805480602002602001604051908101604052809291908181526020016000905b8282101561155d5783829060005260206000200180546114d090612bbd565b80601f01602080910402602001604051908101604052809291908181526020018280546114fc90612bbd565b80156115495780601f1061151e57610100808354040283529160200191611549565b820191906000526020600020905b81548152906001019060200180831161152c57829003601f168201915b5050505050815260200190600101906114b1565b50505050815260200160088201805461157590612bbd565b80601f01602080910402602001604051908101604052809291908181526020018280546115a190612bbd565b80156115ee5780601f106115c3576101008083540402835291602001916115ee565b820191906000526020600020905b8154815290600101906020018083116115d157829003601f168201915b5050505050815260200160098201805480602002602001604051908101604052809291908181526020016000905b8282101561177c578382906000526020600020906003020160405180606001604052908160008201805461164f90612bbd565b80601f016020809104026020016040519081016040528092919081815260200182805461167b90612bbd565b80156116c85780601f1061169d576101008083540402835291602001916116c8565b820191906000526020600020905b8154815290600101906020018083116116ab57829003601f168201915b50505050508152602001600182015481526020016002820180546116eb90612bbd565b80601f016020809104026020016040519081016040528092919081815260200182805461171790612bbd565b80156117645780601f1061173957610100808354040283529160200191611764565b820191906000526020600020905b81548152906001019060200180831161174757829003601f168201915b5050505050815250508152602001906001019061161c565b50505050815250509050919050565b61179482610365565b6040516020016117a49190612b0b565b604051602081830303815290604052805190602001206117c3826104bd565b6040516020016117d39190612b0b565b6040516020818303038152906040528051906020012014611829576040517f08c379a000000000000000000000000000000000000000000000000000000000815260040161182090612b6e565b60405180910390fd5b5050565b606061183882611099565b60e001519050919050565b606061184e82611099565b61010001519050919050565b6118678585858585610db1565b5050505050565b60606000600160008481526020019081526020016000206040518060c0016040529081600082015481526020016001820180546118aa90612bbd565b80601f01602080910402602001604051908101604052809291908181526020018280546118d690612bbd565b80156119235780601f106118f857610100808354040283529160200191611923565b820191906000526020600020905b81548152906001019060200180831161190657829003601f168201915b5050505050815260200160028201805461193c90612bbd565b80601f016020809104026020016040519081016040528092919081815260200182805461196890612bbd565b80156119b55780601f1061198a576101008083540402835291602001916119b5565b820191906000526020600020905b81548152906001019060200180831161199857829003601f168201915b505050505081526020016003820180546119ce90612bbd565b80601f01602080910402602001604051908101604052809291908181526020018280546119fa90612bbd565b8015611a475780601f10611a1c57610100808354040283529160200191611a47565b820191906000526020600020905b815481529060010190602001808311611a2a57829003601f168201915b50505050508152602001600482018054611a6090612bbd565b80601f0160208091040260200160405190810160405280929190818152602001828054611a8c90612bbd565b8015611ad95780601f10611aae57610100808354040283529160200191611ad9565b820191906000526020600020905b815481529060010190602001808311611abc57829003601f168201915b50505050508152602001600582018054611af290612bbd565b80601f0160208091040260200160405190810160405280929190818152602001828054611b1e90612bbd565b8015611b6b5780601f10611b4057610100808354040283529160200191611b6b565b820191906000526020600020905b815481529060010190602001808311611b4e57829003601f168201915b505050505081525050905082816000015114611bbc576040517f08c379a0000000000000000000000000000000000000000000000000000000008152600401611bb390612c3a565b60405180910390fd5b8060a00151915050919050565b816000808481526020019081526020016000206000015414611c20576040517f08c379a0000000000000000000000000000000000000000000000000000000008152600401611c1790612e95565b60405180910390fd5b806000808481526020019081526020016000206005019080519060200190611c49929190611ee5565b5060008083815260200190815260200160002060090160405180606001604052808381526020014281526020016040518060400160405280601081526020017f526561736f6e206e6f7420676976656e0000000000000000000000000000000081525081525090806001815401808255809150506001900390600052602060002090600302016000909190919091506000820151816000019080519060200190611cf4929190611ee5565b50602082015181600101556040820151816002019080519060200190611d1b929190611ee5565b5050505050565b816000808481526020019081526020016000206000015414611d79576040517f08c379a0000000000000000000000000000000000000000000000000000000008152600401611d7090612e95565b60405180910390fd5b806000808481526020019081526020016000206008019080519060200190611da2929190611ee5565b505050565b85600160008881526020019081526020016000206000015403611dff576040517f08c379a0000000000000000000000000000000000000000000000000000000008152600401611df690612f01565b60405180910390fd5b6040518060c001604052808781526020018681526020018581526020018481526020018381526020018281525060016000888152602001908152602001600020600082015181600001556020820151816001019080519060200190611e65929190611ee5565b506040820151816002019080519060200190611e82929190611ee5565b506060820151816003019080519060200190611e9f929190611ee5565b506080820151816004019080519060200190611ebc929190611ee5565b5060a0820151816005019080519060200190611ed9929190611ee5565b50905050505050505050565b828054611ef190612bbd565b90600052602060002090601f016020900481019282611f135760008555611f5a565b82601f10611f2c57805160ff1916838001178555611f5a565b82800160010185558215611f5a579182015b82811115611f59578251825591602001919060010190611f3e565b5b509050611f679190612054565b5090565b6040518060c001604052806000815260200160608152602001606081526020016060815260200160608152602001606081525090565b828054828255906000526020600020908101928215611ff0579160200282015b82811115611fef578251829080519060200190611fdf929190611ee5565b5091602001919060010190611fc1565b5b509050611ffd9190612071565b5090565b604051806101400160405280600081526020016060815260200160608152602001606081526020016060815260200160608152602001606081526020016060815260200160608152602001606081525090565b5b8082111561206d576000816000905550600101612055565b5090565b5b8082111561209157600081816120889190612095565b50600101612072565b5090565b5080546120a190612bbd565b6000825580601f106120b357506120d2565b601f0160209004906000526020600020908101906120d19190612054565b5b50565b6000604051905090565b600080fd5b600080fd5b6000819050919050565b6120fc816120e9565b811461210757600080fd5b50565b600081359050612119816120f3565b92915050565b600060208284031215612135576121346120df565b5b60006121438482850161210a565b91505092915050565b600081519050919050565b600082825260208201905092915050565b60005b8381101561218657808201518184015260208101905061216b565b83811115612195576000848401525b50505050565b6000601f19601f8301169050919050565b60006121b78261214c565b6121c18185612157565b93506121d1818560208601612168565b6121da8161219b565b840191505092915050565b600060208201905081810360008301526121ff81846121ac565b905092915050565b6000806040838503121561221e5761221d6120df565b5b600061222c8582860161210a565b925050602061223d8582860161210a565b9150509250929050565b600080fd5b600080fd5b7f4e487b7100000000000000000000000000000000000000000000000000000000600052604160045260246000fd5b6122898261219b565b810181811067ffffffffffffffff821117156122a8576122a7612251565b5b80604052505050565b60006122bb6120d5565b90506122c78282612280565b919050565b600067ffffffffffffffff8211156122e7576122e6612251565b5b6122f08261219b565b9050602081019050919050565b82818337600083830152505050565b600061231f61231a846122cc565b6122b1565b90508281526020810184848401111561233b5761233a61224c565b5b6123468482856122fd565b509392505050565b600082601f83011261236357612362612247565b5b813561237384826020860161230c565b91505092915050565b60008060008060008060c08789031215612399576123986120df565b5b60006123a789828a0161210a565b965050602087013567ffffffffffffffff8111156123c8576123c76120e4565b5b6123d489828a0161234e565b955050604087013567ffffffffffffffff8111156123f5576123f46120e4565b5b61240189828a0161234e565b945050606087013567ffffffffffffffff811115612422576124216120e4565b5b61242e89828a0161234e565b935050608087013567ffffffffffffffff81111561244f5761244e6120e4565b5b61245b89828a0161234e565b92505060a087013567ffffffffffffffff81111561247c5761247b6120e4565b5b61248889828a0161234e565b9150509295509295509295565b600080604083850312156124ac576124ab6120df565b5b600083013567ffffffffffffffff8111156124ca576124c96120e4565b5b6124d68582860161234e565b925050602083013567ffffffffffffffff8111156124f7576124f66120e4565b5b6125038582860161234e565b9150509250929050565b612516816120e9565b82525050565b600082825260208201905092915050565b60006125388261214c565b612542818561251c565b9350612552818560208601612168565b61255b8161219b565b840191505092915050565b600060c08301600083015161257e600086018261250d565b5060208301518482036020860152612596828261252d565b915050604083015184820360408601526125b0828261252d565b915050606083015184820360608601526125ca828261252d565b915050608083015184820360808601526125e4828261252d565b91505060a083015184820360a08601526125fe828261252d565b9150508091505092915050565b600060208201905081810360008301526126258184612566565b905092915050565b600080600080600060a08688031215612649576126486120df565b5b60006126578882890161210a565b955050602086013567ffffffffffffffff811115612678576126776120e4565b5b6126848882890161234e565b945050604086013567ffffffffffffffff8111156126a5576126a46120e4565b5b6126b18882890161234e565b935050606086013567ffffffffffffffff8111156126d2576126d16120e4565b5b6126de8882890161234e565b925050608086013567ffffffffffffffff8111156126ff576126fe6120e4565b5b61270b8882890161234e565b9150509295509295909350565b600081519050919050565b600082825260208201905092915050565b6000819050602082019050919050565b6000612750838361252d565b905092915050565b6000602082019050919050565b600061277082612718565b61277a8185612723565b93508360208202850161278c85612734565b8060005b858110156127c857848403895281516127a98582612744565b94506127b483612758565b925060208a01995050600181019050612790565b50829750879550505050505092915050565b600081519050919050565b600082825260208201905092915050565b6000819050602082019050919050565b60006060830160008301518482036000860152612823828261252d565b9150506020830151612838602086018261250d565b5060408301518482036040860152612850828261252d565b9150508091505092915050565b60006128698383612806565b905092915050565b6000602082019050919050565b6000612889826127da565b61289381856127e5565b9350836020820285016128a5856127f6565b8060005b858110156128e157848403895281516128c2858261285d565b94506128cd83612871565b925060208a019950506001810190506128a9565b50829750879550505050505092915050565b60006101408301600083015161290c600086018261250d565b5060208301518482036020860152612924828261252d565b9150506040830151848203604086015261293e828261252d565b91505060608301518482036060860152612958828261252d565b91505060808301518482036080860152612972828261252d565b91505060a083015184820360a086015261298c828261252d565b91505060c083015184820360c08601526129a6828261252d565b91505060e083015184820360e08601526129c08282612765565b9150506101008301518482036101008601526129dc828261252d565b9150506101208301518482036101208601526129f8828261287e565b9150508091505092915050565b60006020820190508181036000830152612a1f81846128f3565b905092915050565b600082825260208201905092915050565b6000612a4382612718565b612a4d8185612a27565b935083602082028501612a5f85612734565b8060005b85811015612a9b5784840389528151612a7c8582612744565b9450612a8783612758565b925060208a01995050600181019050612a63565b50829750879550505050505092915050565b60006020820190508181036000830152612ac78184612a38565b905092915050565b600081905092915050565b6000612ae58261214c565b612aef8185612acf565b9350612aff818560208601612168565b80840191505092915050565b6000612b178284612ada565b915081905092915050565b7f496c6c6567616c2054726176656c000000000000000000000000000000000000600082015250565b6000612b58600e83612157565b9150612b6382612b22565b602082019050919050565b60006020820190508181036000830152612b8781612b4b565b9050919050565b7f4e487b7100000000000000000000000000000000000000000000000000000000600052602260045260246000fd5b60006002820490506001821680612bd557607f821691505b602082108103612be857612be7612b8e565b5b50919050565b7f466c6967687420646f6573206e6f742065786973747300000000000000000000600082015250565b6000612c24601683612157565b9150612c2f82612bee565b602082019050919050565b60006020820190508181036000830152612c5381612c17565b9050919050565b60008190508160005260206000209050919050565b60008154612c7c81612bbd565b612c868186612acf565b94506001821660008114612ca15760018114612cb257612ce5565b60ff19831686528186019350612ce5565b612cbb85612c5a565b60005b83811015612cdd57815481890152600182019150602081019050612cbe565b838801955050505b50505092915050565b6000612cfa8284612c6f565b915081905092915050565b7f5468697320636f756e74727920646f6573206e6f742065786973740000000000600082015250565b6000612d3b601b83612157565b9150612d4682612d05565b602082019050919050565b60006020820190508181036000830152612d6a81612d2e565b9050919050565b7f466c6967687420646f6573206e6f742065786973740000000000000000000000600082015250565b6000612da7601583612157565b9150612db282612d71565b602082019050919050565b60006020820190508181036000830152612dd681612d9a565b9050919050565b7f436974697a656e20616c72656164792065786973747300000000000000000000600082015250565b6000612e13601683612157565b9150612e1e82612ddd565b602082019050919050565b60006020820190508181036000830152612e4281612e06565b9050919050565b7f436974697a656e20646f6573206e6f7420657869737400000000000000000000600082015250565b6000612e7f601683612157565b9150612e8a82612e49565b602082019050919050565b60006020820190508181036000830152612eae81612e72565b9050919050565b7f466c6967687420616c7265616479206578697374730000000000000000000000600082015250565b6000612eeb601583612157565b9150612ef682612eb5565b602082019050919050565b60006020820190508181036000830152612f1a81612ede565b905091905056fea2646970667358221220b37b022147405e1f026f61126c2f832dd7eebb126608f67d0bcf28417e088ec764736f6c634300080d0033",
  "immutableReferences": {},
  "source": "// SPDX-License-Identifier: MIT\r\n\r\npragma solidity >=0.7.0 <0.9.0;\r\n\r\nimport \"./Citizen.sol\";\r\nimport \"./Flight.sol\";\r\nimport \"./Country.sol\";\r\n\r\ncontract Immigration is Citizen, Flight, Country {\r\n    mapping(uint256 => Citizen.citizen[]) passengersInFlight;\r\n\r\n    // citizen functions\r\n    function createCitizen(\r\n        uint256 id,\r\n        string memory pn,\r\n        string memory nam,\r\n        string memory dateOfBirth,\r\n        string memory nation\r\n    ) public {\r\n        Citizen.setCitizen(id, pn, nam, dateOfBirth, nation);\r\n    }\r\n\r\n    // flight functions\r\n    function createNewFlight(\r\n        uint256 id,\r\n        string memory code,\r\n        string memory name,\r\n        string memory op,\r\n        string memory dep_con,\r\n        string memory arr_con\r\n    ) public {\r\n        Flight.setFlight(id, code, name, op, dep_con, arr_con);\r\n    }\r\n\r\n    function checkIllegalTravel(uint256 citizen_id, uint256 flight_id)\r\n        public\r\n        view\r\n    {\r\n        require(\r\n            keccak256(abi.encodePacked(Flight.getFlightDeparture(flight_id))) ==\r\n                keccak256(\r\n                    abi.encodePacked(Citizen.getLastKnownLocation(citizen_id))\r\n                ),\r\n            \"Illegal Travel\"\r\n        );\r\n    }\r\n\r\n    function addPersonToFlight(uint256 citizen_id, uint256 flight_id) public {\r\n        Citizen.citizen memory c = Citizen.getCitizen(citizen_id);\r\n\r\n        checkIllegalTravel(citizen_id, flight_id);\r\n\r\n        passengersInFlight[flight_id].push();\r\n\r\n        Citizen.setLastKnownLocation(citizen_id, Flight.getFlightDeparture(flight_id));\r\n        Citizen.setCitizenArrival(citizen_id, Flight.getFlightArrival(flight_id));\r\n    }\r\n\r\n    function allowToEnterCountry(uint256 citizen_id, uint256 flight_id) public {\r\n        Flight.flight memory f = Flight.getFlight(flight_id);\r\n\r\n        // check if the intended travel l\r\n        require(\r\n            keccak256(abi.encodePacked(f.arrival_airport_code)) ==\r\n                keccak256(\r\n                    abi.encodePacked(Citizen.getCitizenArrival(citizen_id))\r\n                ),\r\n            \"Illegal Travel\"\r\n        );\r\n\r\n        Citizen.setLastKnownLocation(citizen_id, f.arrival_airport_code);\r\n        Citizen.setCitizenArrival(citizen_id, \"\");\r\n    }\r\n\r\n    // function check_blacklist_country(\r\n    //     uint256 citizen_id,\r\n    //     string memory country_name\r\n    // ) public view returns (string[] memory) {\r\n    //     require(\r\n    //         keccak256(\r\n    //             abi.encodePacked(countryHashMap[country_name].country_name)\r\n    //         ) == keccak256(abi.encodePacked(country_name)),\r\n    //         \"This country does not exist\"\r\n    //     );\r\n\r\n    //     string[] memory bl_countries = countryHashMap[country_name]\r\n    //         .blacklisted_countries;\r\n    //     string[] memory citizen_travel_history = citizenHashMap[citizen_id]\r\n    //         .travel_history;\r\n    //     string[] memory filtered_list = new string[](200);\r\n    //     uint256 v = 0;\r\n    //     for (\r\n    //         uint256 index = 0;\r\n    //         index < citizen_travel_history.length;\r\n    //         index += 2\r\n    //     ) {\r\n    //         for (uint256 i = 0; i < bl_countries.length; i++) {\r\n    //             if (\r\n    //                 keccak256(\r\n    //                     abi.encodePacked(citizen_travel_history[index])\r\n    //                 ) == keccak256(abi.encodePacked(bl_countries[index]))\r\n    //             ) {\r\n    //                 filtered_list[v] = bl_countries[index];\r\n    //                 v++;\r\n    //                 filtered_list[v] = citizen_travel_history[index + 1];\r\n    //                 v++;\r\n    //             }\r\n    //         }\r\n    //     }\r\n    //     return filtered_list;\r\n    // }\r\n\r\n    // function check_at_risk_country(\r\n    //     uint256 citizen_id,\r\n    //     string memory country_name\r\n    // ) public view returns (string[] memory) {\r\n    //     require(\r\n    //         keccak256(\r\n    //             abi.encodePacked(countryHashMap[country_name].country_name)\r\n    //         ) == keccak256(abi.encodePacked(country_name)),\r\n    //         \"This country does not exist\"\r\n    //     );\r\n\r\n    //     string[] memory atrisk_countries = countryHashMap[country_name]\r\n    //         .at_risk_countries;\r\n    //     string[] memory citizen_travel_history = citizenHashMap[citizen_id]\r\n    //         .travel_history;\r\n    //     string[] memory filtered_list = new string[](200);\r\n    //     uint256 v = 0;\r\n    //     for (\r\n    //         uint256 index = 0;\r\n    //         index < citizen_travel_history.length;\r\n    //         index += 2\r\n    //     ) {\r\n    //         for (uint256 i = 0; i < atrisk_countries.length; i++) {\r\n    //             if (\r\n    //                 keccak256(\r\n    //                     abi.encodePacked(citizen_travel_history[index])\r\n    //                 ) == keccak256(abi.encodePacked(atrisk_countries[index]))\r\n    //             ) {\r\n    //                 filtered_list[v] = atrisk_countries[index];\r\n    //                 v++;\r\n    //                 filtered_list[v] = citizen_travel_history[index + 1];\r\n    //                 v++;\r\n    //             }\r\n    //         }\r\n    //     }\r\n    //     return filtered_list;\r\n    // }\r\n}\r\n",
  "sourcePath": "C:\\Users\\Jaimik Patel\\Desktop\\ttd\\contracts\\Immigration.sol",
  "compiler": {
    "name": "solc",
    "version": "0.8.13+commit.abaa5c0e.Emscripten.clang"
  },
  "schemaVersion": "3.4.6",
  "updatedAt": "2022-05-30T14:42:15.512Z",
  "devdoc": {
    "kind": "dev",
    "methods": {},
    "version": 1
  },
  "userdoc": {
    "kind": "user",
    "methods": {},
    "version": 1
  }
}